{
  "_format": "hh-sol-artifact-1",
  "contractName": "MonkeyContract",
  "sourceName": "contracts/MonkeyContract.sol",
  "abi": [
    {
      "inputs": [],
      "stateMutability": "nonpayable",
      "type": "constructor"
    },
    {
      "anonymous": false,
      "inputs": [
        {
          "indexed": true,
          "internalType": "address",
          "name": "owner",
          "type": "address"
        },
        {
          "indexed": true,
          "internalType": "address",
          "name": "approved",
          "type": "address"
        },
        {
          "indexed": true,
          "internalType": "uint256",
          "name": "tokenId",
          "type": "uint256"
        }
      ],
      "name": "Approval",
      "type": "event"
    },
    {
      "anonymous": false,
      "inputs": [
        {
          "indexed": true,
          "internalType": "address",
          "name": "owner",
          "type": "address"
        },
        {
          "indexed": true,
          "internalType": "address",
          "name": "operator",
          "type": "address"
        },
        {
          "indexed": false,
          "internalType": "bool",
          "name": "approved",
          "type": "bool"
        }
      ],
      "name": "ApprovalForAll",
      "type": "event"
    },
    {
      "anonymous": false,
      "inputs": [
        {
          "indexed": false,
          "internalType": "uint256",
          "name": "tokenId",
          "type": "uint256"
        },
        {
          "indexed": false,
          "internalType": "uint256",
          "name": "genes",
          "type": "uint256"
        },
        {
          "indexed": false,
          "internalType": "uint256",
          "name": "birthtime",
          "type": "uint256"
        },
        {
          "indexed": false,
          "internalType": "uint256",
          "name": "parent1Id",
          "type": "uint256"
        },
        {
          "indexed": false,
          "internalType": "uint256",
          "name": "parent2Id",
          "type": "uint256"
        },
        {
          "indexed": false,
          "internalType": "uint256",
          "name": "generation",
          "type": "uint256"
        },
        {
          "indexed": false,
          "internalType": "address",
          "name": "owner",
          "type": "address"
        }
      ],
      "name": "BreedingSuccessful",
      "type": "event"
    },
    {
      "anonymous": false,
      "inputs": [
        {
          "indexed": false,
          "internalType": "address",
          "name": "owner",
          "type": "address"
        },
        {
          "indexed": false,
          "internalType": "uint256",
          "name": "tokenId",
          "type": "uint256"
        },
        {
          "indexed": false,
          "internalType": "uint256",
          "name": "parent1Id",
          "type": "uint256"
        },
        {
          "indexed": false,
          "internalType": "uint256",
          "name": "parent2Id",
          "type": "uint256"
        },
        {
          "indexed": false,
          "internalType": "uint256",
          "name": "genes",
          "type": "uint256"
        }
      ],
      "name": "MonkeyCreated",
      "type": "event"
    },
    {
      "anonymous": false,
      "inputs": [
        {
          "indexed": true,
          "internalType": "address",
          "name": "previousOwner",
          "type": "address"
        },
        {
          "indexed": true,
          "internalType": "address",
          "name": "newOwner",
          "type": "address"
        }
      ],
      "name": "OwnershipTransferred",
      "type": "event"
    },
    {
      "anonymous": false,
      "inputs": [
        {
          "indexed": false,
          "internalType": "address",
          "name": "account",
          "type": "address"
        }
      ],
      "name": "Paused",
      "type": "event"
    },
    {
      "anonymous": false,
      "inputs": [
        {
          "indexed": true,
          "internalType": "address",
          "name": "from",
          "type": "address"
        },
        {
          "indexed": true,
          "internalType": "address",
          "name": "to",
          "type": "address"
        },
        {
          "indexed": true,
          "internalType": "uint256",
          "name": "tokenId",
          "type": "uint256"
        }
      ],
      "name": "Transfer",
      "type": "event"
    },
    {
      "anonymous": false,
      "inputs": [
        {
          "indexed": false,
          "internalType": "address",
          "name": "account",
          "type": "address"
        }
      ],
      "name": "Unpaused",
      "type": "event"
    },
    {
      "inputs": [],
      "name": "GEN0_Limit",
      "outputs": [
        {
          "internalType": "uint256",
          "name": "",
          "type": "uint256"
        }
      ],
      "stateMutability": "view",
      "type": "function"
    },
    {
      "inputs": [
        {
          "internalType": "uint256",
          "name": "",
          "type": "uint256"
        }
      ],
      "name": "allMonkeysArray",
      "outputs": [
        {
          "internalType": "uint256",
          "name": "parent1Id",
          "type": "uint256"
        },
        {
          "internalType": "uint256",
          "name": "parent2Id",
          "type": "uint256"
        },
        {
          "internalType": "uint256",
          "name": "generation",
          "type": "uint256"
        },
        {
          "internalType": "uint256",
          "name": "genes",
          "type": "uint256"
        },
        {
          "internalType": "uint256",
          "name": "birthtime",
          "type": "uint256"
        }
      ],
      "stateMutability": "view",
      "type": "function"
    },
    {
      "inputs": [
        {
          "internalType": "address",
          "name": "to",
          "type": "address"
        },
        {
          "internalType": "uint256",
          "name": "tokenId",
          "type": "uint256"
        }
      ],
      "name": "approve",
      "outputs": [],
      "stateMutability": "nonpayable",
      "type": "function"
    },
    {
      "inputs": [
        {
          "internalType": "address",
          "name": "owner",
          "type": "address"
        }
      ],
      "name": "balanceOf",
      "outputs": [
        {
          "internalType": "uint256",
          "name": "",
          "type": "uint256"
        }
      ],
      "stateMutability": "view",
      "type": "function"
    },
    {
      "inputs": [
        {
          "internalType": "uint256",
          "name": "_parent1Id",
          "type": "uint256"
        },
        {
          "internalType": "uint256",
          "name": "_parent2Id",
          "type": "uint256"
        }
      ],
      "name": "breed",
      "outputs": [
        {
          "internalType": "uint256",
          "name": "",
          "type": "uint256"
        }
      ],
      "stateMutability": "nonpayable",
      "type": "function"
    },
    {
      "inputs": [
        {
          "internalType": "uint256",
          "name": "_genes",
          "type": "uint256"
        }
      ],
      "name": "createGen0Monkey",
      "outputs": [],
      "stateMutability": "nonpayable",
      "type": "function"
    },
    {
      "inputs": [
        {
          "internalType": "uint256",
          "name": "_parent1Id",
          "type": "uint256"
        },
        {
          "internalType": "uint256",
          "name": "_parent2Id",
          "type": "uint256"
        },
        {
          "internalType": "uint256",
          "name": "_generation",
          "type": "uint256"
        },
        {
          "internalType": "uint256",
          "name": "_genes",
          "type": "uint256"
        },
        {
          "internalType": "address",
          "name": "_owner",
          "type": "address"
        }
      ],
      "name": "createMonkey",
      "outputs": [
        {
          "internalType": "uint256",
          "name": "",
          "type": "uint256"
        }
      ],
      "stateMutability": "nonpayable",
      "type": "function"
    },
    {
      "inputs": [
        {
          "internalType": "address",
          "name": "sender",
          "type": "address"
        }
      ],
      "name": "findMonkeyIdsOfAddress",
      "outputs": [
        {
          "internalType": "uint256[]",
          "name": "",
          "type": "uint256[]"
        }
      ],
      "stateMutability": "view",
      "type": "function"
    },
    {
      "inputs": [
        {
          "internalType": "address",
          "name": "owner",
          "type": "address"
        },
        {
          "internalType": "uint256",
          "name": "tokenId",
          "type": "uint256"
        }
      ],
      "name": "findNFTposition",
      "outputs": [
        {
          "internalType": "uint256",
          "name": "",
          "type": "uint256"
        }
      ],
      "stateMutability": "view",
      "type": "function"
    },
    {
      "inputs": [],
      "name": "gen0amountTotal",
      "outputs": [
        {
          "internalType": "uint256",
          "name": "",
          "type": "uint256"
        }
      ],
      "stateMutability": "view",
      "type": "function"
    },
    {
      "inputs": [
        {
          "internalType": "uint256",
          "name": "tokenId",
          "type": "uint256"
        }
      ],
      "name": "getApproved",
      "outputs": [
        {
          "internalType": "address",
          "name": "",
          "type": "address"
        }
      ],
      "stateMutability": "view",
      "type": "function"
    },
    {
      "inputs": [],
      "name": "getMonkeyContractAddress",
      "outputs": [
        {
          "internalType": "address",
          "name": "",
          "type": "address"
        }
      ],
      "stateMutability": "view",
      "type": "function"
    },
    {
      "inputs": [
        {
          "internalType": "uint256",
          "name": "tokenId",
          "type": "uint256"
        }
      ],
      "name": "getMonkeyDetails",
      "outputs": [
        {
          "internalType": "uint256",
          "name": "genes",
          "type": "uint256"
        },
        {
          "internalType": "uint256",
          "name": "birthtime",
          "type": "uint256"
        },
        {
          "internalType": "uint256",
          "name": "parent1Id",
          "type": "uint256"
        },
        {
          "internalType": "uint256",
          "name": "parent2Id",
          "type": "uint256"
        },
        {
          "internalType": "uint256",
          "name": "generation",
          "type": "uint256"
        },
        {
          "internalType": "address",
          "name": "owner",
          "type": "address"
        },
        {
          "internalType": "address",
          "name": "approvedAddress",
          "type": "address"
        }
      ],
      "stateMutability": "view",
      "type": "function"
    },
    {
      "inputs": [
        {
          "internalType": "address",
          "name": "owner",
          "type": "address"
        },
        {
          "internalType": "address",
          "name": "operator",
          "type": "address"
        }
      ],
      "name": "isApprovedForAll",
      "outputs": [
        {
          "internalType": "bool",
          "name": "",
          "type": "bool"
        }
      ],
      "stateMutability": "view",
      "type": "function"
    },
    {
      "inputs": [
        {
          "internalType": "address",
          "name": "",
          "type": "address"
        },
        {
          "internalType": "uint256",
          "name": "",
          "type": "uint256"
        }
      ],
      "name": "monkeyIdPositionsMapping",
      "outputs": [
        {
          "internalType": "uint256",
          "name": "",
          "type": "uint256"
        }
      ],
      "stateMutability": "view",
      "type": "function"
    },
    {
      "inputs": [],
      "name": "name",
      "outputs": [
        {
          "internalType": "string",
          "name": "",
          "type": "string"
        }
      ],
      "stateMutability": "view",
      "type": "function"
    },
    {
      "inputs": [],
      "name": "owner",
      "outputs": [
        {
          "internalType": "address",
          "name": "",
          "type": "address"
        }
      ],
      "stateMutability": "view",
      "type": "function"
    },
    {
      "inputs": [
        {
          "internalType": "uint256",
          "name": "tokenId",
          "type": "uint256"
        }
      ],
      "name": "ownerOf",
      "outputs": [
        {
          "internalType": "address",
          "name": "",
          "type": "address"
        }
      ],
      "stateMutability": "view",
      "type": "function"
    },
    {
      "inputs": [
        {
          "internalType": "address",
          "name": "",
          "type": "address"
        },
        {
          "internalType": "uint256",
          "name": "",
          "type": "uint256"
        }
      ],
      "name": "ownersToTokenIdArrayMapping",
      "outputs": [
        {
          "internalType": "uint256",
          "name": "",
          "type": "uint256"
        }
      ],
      "stateMutability": "view",
      "type": "function"
    },
    {
      "inputs": [],
      "name": "paused",
      "outputs": [
        {
          "internalType": "bool",
          "name": "",
          "type": "bool"
        }
      ],
      "stateMutability": "view",
      "type": "function"
    },
    {
      "inputs": [],
      "name": "renounceOwnership",
      "outputs": [],
      "stateMutability": "nonpayable",
      "type": "function"
    },
    {
      "inputs": [
        {
          "internalType": "address",
          "name": "from",
          "type": "address"
        },
        {
          "internalType": "address",
          "name": "to",
          "type": "address"
        },
        {
          "internalType": "uint256",
          "name": "tokenId",
          "type": "uint256"
        }
      ],
      "name": "safeTransferFrom",
      "outputs": [],
      "stateMutability": "nonpayable",
      "type": "function"
    },
    {
      "inputs": [
        {
          "internalType": "address",
          "name": "from",
          "type": "address"
        },
        {
          "internalType": "address",
          "name": "to",
          "type": "address"
        },
        {
          "internalType": "uint256",
          "name": "tokenId",
          "type": "uint256"
        },
        {
          "internalType": "bytes",
          "name": "_data",
          "type": "bytes"
        }
      ],
      "name": "safeTransferFrom",
      "outputs": [],
      "stateMutability": "nonpayable",
      "type": "function"
    },
    {
      "inputs": [
        {
          "internalType": "address",
          "name": "operator",
          "type": "address"
        },
        {
          "internalType": "bool",
          "name": "approved",
          "type": "bool"
        }
      ],
      "name": "setApprovalForAll",
      "outputs": [],
      "stateMutability": "nonpayable",
      "type": "function"
    },
    {
      "inputs": [],
      "name": "showTotalSupply",
      "outputs": [
        {
          "internalType": "uint256",
          "name": "",
          "type": "uint256"
        }
      ],
      "stateMutability": "view",
      "type": "function"
    },
    {
      "inputs": [
        {
          "internalType": "bytes4",
          "name": "interfaceId",
          "type": "bytes4"
        }
      ],
      "name": "supportsInterface",
      "outputs": [
        {
          "internalType": "bool",
          "name": "",
          "type": "bool"
        }
      ],
      "stateMutability": "view",
      "type": "function"
    },
    {
      "inputs": [],
      "name": "symbol",
      "outputs": [
        {
          "internalType": "string",
          "name": "",
          "type": "string"
        }
      ],
      "stateMutability": "view",
      "type": "function"
    },
    {
      "inputs": [
        {
          "internalType": "uint256",
          "name": "tokenId",
          "type": "uint256"
        }
      ],
      "name": "tokenURI",
      "outputs": [
        {
          "internalType": "string",
          "name": "",
          "type": "string"
        }
      ],
      "stateMutability": "view",
      "type": "function"
    },
    {
      "inputs": [],
      "name": "totalSupply",
      "outputs": [
        {
          "internalType": "uint256",
          "name": "",
          "type": "uint256"
        }
      ],
      "stateMutability": "view",
      "type": "function"
    },
    {
      "inputs": [
        {
          "internalType": "address",
          "name": "_from",
          "type": "address"
        },
        {
          "internalType": "address",
          "name": "_to",
          "type": "address"
        },
        {
          "internalType": "uint256",
          "name": "_tokenId",
          "type": "uint256"
        }
      ],
      "name": "transfer",
      "outputs": [],
      "stateMutability": "nonpayable",
      "type": "function"
    },
    {
      "inputs": [
        {
          "internalType": "address",
          "name": "from",
          "type": "address"
        },
        {
          "internalType": "address",
          "name": "to",
          "type": "address"
        },
        {
          "internalType": "uint256",
          "name": "tokenId",
          "type": "uint256"
        }
      ],
      "name": "transferFrom",
      "outputs": [],
      "stateMutability": "nonpayable",
      "type": "function"
    },
    {
      "inputs": [
        {
          "internalType": "address",
          "name": "newOwner",
          "type": "address"
        }
      ],
      "name": "transferOwnership",
      "outputs": [],
      "stateMutability": "nonpayable",
      "type": "function"
    }
  ],
  "bytecode": "0x6080604052600c6009553480156200001657600080fd5b506040518060400160405280600e81526020017f43727970746f204d6f6e6b6579730000000000000000000000000000000000008152506040518060400160405280600681526020017f4d4f4e4b4559000000000000000000000000000000000000000000000000000081525081600090805190602001906200009b9291906200115b565b508060019080519060200190620000b49291906200115b565b5050506000620000c9620001fc60201b60201c565b905080600660006101000a81548173ffffffffffffffffffffffffffffffffffffffff021916908373ffffffffffffffffffffffffffffffffffffffff1602179055508073ffffffffffffffffffffffffffffffffffffffff16600073ffffffffffffffffffffffffffffffffffffffff167f8be0079c531659141344cd1fd0a4f28419497f9722a3daafe3b4186f6b6457e060405160405180910390a35060016007819055506000600860006101000a81548160ff02191690831515021790555030600860016101000a81548173ffffffffffffffffffffffffffffffffffffffff021916908373ffffffffffffffffffffffffffffffffffffffff160217905550620001e46604503ef19324976200020460201b60201c565b620001f660006200031160201b60201c565b62001a7a565b600033905090565b62000214620001fc60201b60201c565b73ffffffffffffffffffffffffffffffffffffffff166200023a6200053960201b60201c565b73ffffffffffffffffffffffffffffffffffffffff161462000293576040517f08c379a00000000000000000000000000000000000000000000000000000000081526004016200028a90620017a2565b60405180910390fd5b600954600a5410620002dc576040517f08c379a0000000000000000000000000000000000000000000000000000000008152600401620002d390620017e6565b60405180910390fd5b600a6000815480929190620002f190620019a3565b91905055506200030d600080600084336200056360201b60201c565b5050565b600260075414156200035a576040517f08c379a00000000000000000000000000000000000000000000000000000000081526004016200035190620017c4565b60405180910390fd5b6002600781905550620003726200079d60201b60201c565b15620003b5576040517f08c379a0000000000000000000000000000000000000000000000000000000008152600401620003ac906200171a565b60405180910390fd5b6000620003c882620007b460201b60201c565b905060011515620003e533846200086960201b62001cc81760201c565b151514620003f257600080fd5b600c60008273ffffffffffffffffffffffffffffffffffffffff1673ffffffffffffffffffffffffffffffffffffffff168152602001908152602001600020600d60008373ffffffffffffffffffffffffffffffffffffffff1673ffffffffffffffffffffffffffffffffffffffff16815260200190815260200160002060008481526020019081526020016000205481548110620004ba577f4e487b7100000000000000000000000000000000000000000000000000000000600052603260045260246000fd5b9060005260206000200160009055600d60008273ffffffffffffffffffffffffffffffffffffffff1673ffffffffffffffffffffffffffffffffffffffff1681526020019081526020016000206000838152602001908152602001600020600090556200052d826200097160201b60201c565b50600160078190555050565b6000600660009054906101000a900473ffffffffffffffffffffffffffffffffffffffff16905090565b6000620005756200079d60201b60201c565b15620005b8576040517f08c379a0000000000000000000000000000000000000000000000000000000008152600401620005af906200171a565b60405180910390fd5b60006040518060a00160405280888152602001878152602001868152602001858152602001428152509050600b6000815480929190620005f890620019a3565b9190505550600e8190806001815401808255809150506001900390600052602060002090600502016000909190919091506000820151816000015560208201518160010155604082015181600201556060820151816003015560808201518160040155505060006200067f6001600e8054905062000aa160201b62001da61790919060201c565b905062000693848262000ab960201b60201c565b80600d60008673ffffffffffffffffffffffffffffffffffffffff1673ffffffffffffffffffffffffffffffffffffffff168152602001908152602001600020600083815260200190815260200160002081905550600c60008573ffffffffffffffffffffffffffffffffffffffff1673ffffffffffffffffffffffffffffffffffffffff1681526020019081526020016000208190806001815401808255809150506001900390600052602060002001600090919091909150557f0b1e9a74eeaae184646d7a35062426460c8c9364005c6d441cce036dd9c655d584828a8a896040516200078795949392919062001657565b60405180910390a1809250505095945050505050565b6000600860009054906101000a900460ff16905090565b6000806002600084815260200190815260200160002060009054906101000a900473ffffffffffffffffffffffffffffffffffffffff169050600073ffffffffffffffffffffffffffffffffffffffff168173ffffffffffffffffffffffffffffffffffffffff16141562000860576040517f08c379a000000000000000000000000000000000000000000000000000000000815260040162000857906200173c565b60405180910390fd5b80915050919050565b60006200087c8262000adf60201b60201c565b620008be576040517f08c379a0000000000000000000000000000000000000000000000000000000008152600401620008b590620016f8565b60405180910390fd5b6000620008d683620007b460201b62000cda1760201c565b90508073ffffffffffffffffffffffffffffffffffffffff168473ffffffffffffffffffffffffffffffffffffffff1614806200094e57508373ffffffffffffffffffffffffffffffffffffffff16620009368462000b4b60201b60201c565b73ffffffffffffffffffffffffffffffffffffffff16145b8062000968575062000967818562000bdb60201b60201c565b5b91505092915050565b60006200098982620007b460201b62000cda1760201c565b90506200099f8160008462000c6f60201b60201c565b620009b260008362000c7460201b60201c565b6001600360008373ffffffffffffffffffffffffffffffffffffffff1673ffffffffffffffffffffffffffffffffffffffff168152602001908152602001600020600082825462000a04919062001892565b925050819055506002600083815260200190815260200160002060006101000a81549073ffffffffffffffffffffffffffffffffffffffff021916905581600073ffffffffffffffffffffffffffffffffffffffff168273ffffffffffffffffffffffffffffffffffffffff167fddf252ad1be2c89b69c2b068fc378daa952ba7f163c4a11628f55a4df523b3ef60405160405180910390a45050565b6000818362000ab1919062001892565b905092915050565b62000adb82826040518060200160405280600081525062000d3a60201b60201c565b5050565b60008073ffffffffffffffffffffffffffffffffffffffff166002600084815260200190815260200160002060009054906101000a900473ffffffffffffffffffffffffffffffffffffffff1673ffffffffffffffffffffffffffffffffffffffff1614159050919050565b600062000b5e8262000adf60201b60201c565b62000ba0576040517f08c379a000000000000000000000000000000000000000000000000000000000815260040162000b979062001780565b60405180910390fd5b6004600083815260200190815260200160002060009054906101000a900473ffffffffffffffffffffffffffffffffffffffff169050919050565b6000600560008473ffffffffffffffffffffffffffffffffffffffff1673ffffffffffffffffffffffffffffffffffffffff16815260200190815260200160002060008373ffffffffffffffffffffffffffffffffffffffff1673ffffffffffffffffffffffffffffffffffffffff16815260200190815260200160002060009054906101000a900460ff16905092915050565b505050565b816004600083815260200190815260200160002060006101000a81548173ffffffffffffffffffffffffffffffffffffffff021916908373ffffffffffffffffffffffffffffffffffffffff160217905550808273ffffffffffffffffffffffffffffffffffffffff1662000cf483620007b460201b62000cda1760201c565b73ffffffffffffffffffffffffffffffffffffffff167f8c5be1e5ebec7d5bd14f71427d1e84f3dd0314c0f7b2291e5b200ac8c7c3b92560405160405180910390a45050565b62000d4c838362000da860201b60201c565b62000d61600084848462000f8e60201b60201c565b62000da3576040517f08c379a000000000000000000000000000000000000000000000000000000000815260040162000d9a90620016b4565b60405180910390fd5b505050565b600073ffffffffffffffffffffffffffffffffffffffff168273ffffffffffffffffffffffffffffffffffffffff16141562000e1b576040517f08c379a000000000000000000000000000000000000000000000000000000000815260040162000e12906200175e565b60405180910390fd5b62000e2c8162000adf60201b60201c565b1562000e6f576040517f08c379a000000000000000000000000000000000000000000000000000000000815260040162000e6690620016d6565b60405180910390fd5b62000e836000838362000c6f60201b60201c565b6001600360008473ffffffffffffffffffffffffffffffffffffffff1673ffffffffffffffffffffffffffffffffffffffff168152602001908152602001600020600082825462000ed5919062001835565b92505081905550816002600083815260200190815260200160002060006101000a81548173ffffffffffffffffffffffffffffffffffffffff021916908373ffffffffffffffffffffffffffffffffffffffff160217905550808273ffffffffffffffffffffffffffffffffffffffff16600073ffffffffffffffffffffffffffffffffffffffff167fddf252ad1be2c89b69c2b068fc378daa952ba7f163c4a11628f55a4df523b3ef60405160405180910390a45050565b600062000fbc8473ffffffffffffffffffffffffffffffffffffffff166200114860201b62001dbc1760201c565b156200113b578373ffffffffffffffffffffffffffffffffffffffff1663150b7a0262000fee620001fc60201b60201c565b8786866040518563ffffffff1660e01b815260040162001012949392919062001603565b602060405180830381600087803b1580156200102d57600080fd5b505af19250505080156200106157506040513d601f19601f820116820180604052508101906200105e919062001222565b60015b620010ea573d806000811462001094576040519150601f19603f3d011682016040523d82523d6000602084013e62001099565b606091505b50600081511415620010e2576040517f08c379a0000000000000000000000000000000000000000000000000000000008152600401620010d990620016b4565b60405180910390fd5b805181602001fd5b63150b7a0260e01b7bffffffffffffffffffffffffffffffffffffffffffffffffffffffff1916817bffffffffffffffffffffffffffffffffffffffffffffffffffffffff19161491505062001140565b600190505b949350505050565b600080823b905060008111915050919050565b82805462001169906200196d565b90600052602060002090601f0160209004810192826200118d5760008555620011d9565b82601f10620011a857805160ff1916838001178555620011d9565b82800160010185558215620011d9579182015b82811115620011d8578251825591602001919060010190620011bb565b5b509050620011e89190620011ec565b5090565b5b8082111562001207576000816000905550600101620011ed565b5090565b6000815190506200121c8162001a60565b92915050565b6000602082840312156200123557600080fd5b600062001245848285016200120b565b91505092915050565b6200125981620018cd565b82525050565b60006200126c8262001808565b62001278818562001813565b93506200128a81856020860162001937565b620012958162001a4f565b840191505092915050565b6000620012af60328362001824565b91507f4552433732313a207472616e7366657220746f206e6f6e20455243373231526560008301527f63656976657220696d706c656d656e74657200000000000000000000000000006020830152604082019050919050565b600062001317601c8362001824565b91507f4552433732313a20746f6b656e20616c7265616479206d696e746564000000006000830152602082019050919050565b600062001359602c8362001824565b91507f4552433732313a206f70657261746f7220717565727920666f72206e6f6e657860008301527f697374656e7420746f6b656e00000000000000000000000000000000000000006020830152604082019050919050565b6000620013c160108362001824565b91507f5061757361626c653a20706175736564000000000000000000000000000000006000830152602082019050919050565b60006200140360298362001824565b91507f4552433732313a206f776e657220717565727920666f72206e6f6e657869737460008301527f656e7420746f6b656e00000000000000000000000000000000000000000000006020830152604082019050919050565b60006200146b60208362001824565b91507f4552433732313a206d696e7420746f20746865207a65726f20616464726573736000830152602082019050919050565b6000620014ad602c8362001824565b91507f4552433732313a20617070726f76656420717565727920666f72206e6f6e657860008301527f697374656e7420746f6b656e00000000000000000000000000000000000000006020830152604082019050919050565b60006200151560208362001824565b91507f4f776e61626c653a2063616c6c6572206973206e6f7420746865206f776e65726000830152602082019050919050565b600062001557601f8362001824565b91507f5265656e7472616e637947756172643a207265656e7472616e742063616c6c006000830152602082019050919050565b60006200159960278362001824565b91507f4d6178696d756d20616d6f756e74206f662067656e2030206d6f6e6b6579732060008301527f72656163686564000000000000000000000000000000000000000000000000006020830152604082019050919050565b620015fd816200192d565b82525050565b60006080820190506200161a60008301876200124e565b6200162960208301866200124e565b620016386040830185620015f2565b81810360608301526200164c81846200125f565b905095945050505050565b600060a0820190506200166e60008301886200124e565b6200167d6020830187620015f2565b6200168c6040830186620015f2565b6200169b6060830185620015f2565b620016aa6080830184620015f2565b9695505050505050565b60006020820190508181036000830152620016cf81620012a0565b9050919050565b60006020820190508181036000830152620016f18162001308565b9050919050565b6000602082019050818103600083015262001713816200134a565b9050919050565b600060208201905081810360008301526200173581620013b2565b9050919050565b600060208201905081810360008301526200175781620013f4565b9050919050565b6000602082019050818103600083015262001779816200145c565b9050919050565b600060208201905081810360008301526200179b816200149e565b9050919050565b60006020820190508181036000830152620017bd8162001506565b9050919050565b60006020820190508181036000830152620017df8162001548565b9050919050565b6000602082019050818103600083015262001801816200158a565b9050919050565b600081519050919050565b600082825260208201905092915050565b600082825260208201905092915050565b600062001842826200192d565b91506200184f836200192d565b9250827fffffffffffffffffffffffffffffffffffffffffffffffffffffffffffffffff03821115620018875762001886620019f1565b5b828201905092915050565b60006200189f826200192d565b9150620018ac836200192d565b925082821015620018c257620018c1620019f1565b5b828203905092915050565b6000620018da826200190d565b9050919050565b60007fffffffff0000000000000000000000000000000000000000000000000000000082169050919050565b600073ffffffffffffffffffffffffffffffffffffffff82169050919050565b6000819050919050565b60005b83811015620019575780820151818401526020810190506200193a565b8381111562001967576000848401525b50505050565b600060028204905060018216806200198657607f821691505b602082108114156200199d576200199c62001a20565b5b50919050565b6000620019b0826200192d565b91507fffffffffffffffffffffffffffffffffffffffffffffffffffffffffffffffff821415620019e657620019e5620019f1565b5b600182019050919050565b7f4e487b7100000000000000000000000000000000000000000000000000000000600052601160045260246000fd5b7f4e487b7100000000000000000000000000000000000000000000000000000000600052602260045260246000fd5b6000601f19601f8301169050919050565b62001a6b81620018e1565b811462001a7757600080fd5b50565b6145018062001a8a6000396000f3fe608060405234801561001057600080fd5b50600436106101f05760003560e01c80638da5cb5b1161010f578063beabacc8116100a2578063e985e9c511610071578063e985e9c514610611578063ef742fc114610641578063f2fde38b1461065d578063f91ba67414610679576101f0565b8063beabacc814610577578063c87b56dd14610593578063d9ecad7b146105c3578063daa97fae146105f3576101f0565b8063a0b7cb07116100de578063a0b7cb07146104f1578063a22cb4651461050f578063b23abf991461052b578063b88d4fde1461055b576101f0565b80638da5cb5b1461045557806390ba34851461047357806395d89b41146104a357806396fab2c1146104c1576101f0565b806323b872dd116101875780636352211e116101565780636352211e146103bb5780636fcb95bf146103eb57806370a082311461041b578063715018a61461044b576101f0565b806323b872dd1461032f5780632558e25f1461034b57806342842e0e146103815780635c975abb1461039d576101f0565b8063095ea7b3116101c3578063095ea7b31461029157806318160ddd146102ad5780631b0a1aed146102cb5780631b417278146102fb576101f0565b806301ffc9a7146101f557806306fdde0314610225578063081812fc146102435780630917cffe14610273575b600080fd5b61020f600480360381019061020a9190613059565b610697565b60405161021c9190613bc4565b60405180910390f35b61022d610779565b60405161023a9190613bdf565b60405180910390f35b61025d600480360381019061025891906130ab565b61080b565b60405161026a9190613ae8565b60405180910390f35b61027b610890565b6040516102889190613ec1565b60405180910390f35b6102ab60048036038101906102a6919061301d565b610896565b005b6102b56109ae565b6040516102c29190613ec1565b60405180910390f35b6102e560048036038101906102e09190612eb2565b6109b4565b6040516102f29190613ba2565b60405180910390f35b610315600480360381019061031091906130ab565b610a4b565b604051610326959493929190613edc565b60405180910390f35b61034960048036038101906103449190612f17565b610a91565b005b610365600480360381019061036091906130ab565b610af1565b6040516103789796959493929190613f2f565b60405180910390f35b61039b60048036038101906103969190612f17565b610ca3565b005b6103a5610cc3565b6040516103b29190613bc4565b60405180910390f35b6103d560048036038101906103d091906130ab565b610cda565b6040516103e29190613ae8565b60405180910390f35b6104056004803603810190610400919061301d565b610d8c565b6040516104129190613ec1565b60405180910390f35b61043560048036038101906104309190612eb2565b610de7565b6040516104429190613ec1565b60405180910390f35b610453610e9f565b005b61045d610fdc565b60405161046a9190613ae8565b60405180910390f35b61048d60048036038101906104889190613110565b611006565b60405161049a9190613ec1565b60405180910390f35b6104ab611025565b6040516104b89190613bdf565b60405180910390f35b6104db60048036038101906104d6919061301d565b6110b7565b6040516104e89190613ec1565b60405180910390f35b6104f96110e8565b6040516105069190613ec1565b60405180910390f35b61052960048036038101906105249190612fe1565b6110f2565b005b6105456004803603810190610540919061301d565b611273565b6040516105529190613ec1565b60405180910390f35b61057560048036038101906105709190612f66565b611298565b005b610591600480360381019061058c9190612f17565b6112fa565b005b6105ad60048036038101906105a891906130ab565b611530565b6040516105ba9190613bdf565b60405180910390f35b6105dd60048036038101906105d891906130d4565b6115d7565b6040516105ea9190613ec1565b60405180910390f35b6105fb61196b565b6040516106089190613ae8565b60405180910390f35b61062b60048036038101906106269190612edb565b611995565b6040516106389190613bc4565b60405180910390f35b61065b600480360381019061065691906130ab565b611a29565b005b61067760048036038101906106729190612eb2565b611b16565b005b610681611cc2565b60405161068e9190613ec1565b60405180910390f35b60007f80ac58cd000000000000000000000000000000000000000000000000000000007bffffffffffffffffffffffffffffffffffffffffffffffffffffffff1916827bffffffffffffffffffffffffffffffffffffffffffffffffffffffff1916148061076257507f5b5e139f000000000000000000000000000000000000000000000000000000007bffffffffffffffffffffffffffffffffffffffffffffffffffffffff1916827bffffffffffffffffffffffffffffffffffffffffffffffffffffffff1916145b80610772575061077182611dcf565b5b9050919050565b606060008054610788906142ec565b80601f01602080910402602001604051908101604052809291908181526020018280546107b4906142ec565b80156108015780601f106107d657610100808354040283529160200191610801565b820191906000526020600020905b8154815290600101906020018083116107e457829003601f168201915b5050505050905090565b600061081682611e39565b610855576040517f08c379a000000000000000000000000000000000000000000000000000000000815260040161084c90613dc1565b60405180910390fd5b6004600083815260200190815260200160002060009054906101000a900473ffffffffffffffffffffffffffffffffffffffff169050919050565b600a5481565b60006108a182610cda565b90508073ffffffffffffffffffffffffffffffffffffffff168373ffffffffffffffffffffffffffffffffffffffff161415610912576040517f08c379a000000000000000000000000000000000000000000000000000000000815260040161090990613e41565b60405180910390fd5b8073ffffffffffffffffffffffffffffffffffffffff16610931611ea5565b73ffffffffffffffffffffffffffffffffffffffff161480610960575061095f8161095a611ea5565b611995565b5b61099f576040517f08c379a000000000000000000000000000000000000000000000000000000000815260040161099690613d01565b60405180910390fd5b6109a98383611ead565b505050565b600b5481565b6060600c60008373ffffffffffffffffffffffffffffffffffffffff1673ffffffffffffffffffffffffffffffffffffffff168152602001908152602001600020805480602002602001604051908101604052809291908181526020018280548015610a3f57602002820191906000526020600020905b815481526020019060010190808311610a2b575b50505050509050919050565b600e8181548110610a5b57600080fd5b90600052602060002090600502016000915090508060000154908060010154908060020154908060030154908060040154905085565b610aa2610a9c611ea5565b82611cc8565b610ae1576040517f08c379a0000000000000000000000000000000000000000000000000000000008152600401610ad890613e61565b60405180910390fd5b610aec838383611f66565b505050565b6000806000806000806000600e8881548110610b36577f4e487b7100000000000000000000000000000000000000000000000000000000600052603260045260246000fd5b906000526020600020906005020160030154600e8981548110610b82577f4e487b7100000000000000000000000000000000000000000000000000000000600052603260045260246000fd5b906000526020600020906005020160040154600e8a81548110610bce577f4e487b7100000000000000000000000000000000000000000000000000000000600052603260045260246000fd5b906000526020600020906005020160000154600e8b81548110610c1a577f4e487b7100000000000000000000000000000000000000000000000000000000600052603260045260246000fd5b906000526020600020906005020160010154600e8c81548110610c66577f4e487b7100000000000000000000000000000000000000000000000000000000600052603260045260246000fd5b906000526020600020906005020160020154610c818d610cda565b610c8a8e61080b565b9650965096509650965096509650919395979092949650565b610cbe83838360405180602001604052806000815250611298565b505050565b6000600860009054906101000a900460ff16905090565b6000806002600084815260200190815260200160002060009054906101000a900473ffffffffffffffffffffffffffffffffffffffff169050600073ffffffffffffffffffffffffffffffffffffffff168173ffffffffffffffffffffffffffffffffffffffff161415610d83576040517f08c379a0000000000000000000000000000000000000000000000000000000008152600401610d7a90613d41565b60405180910390fd5b80915050919050565b6000600d60008473ffffffffffffffffffffffffffffffffffffffff1673ffffffffffffffffffffffffffffffffffffffff168152602001908152602001600020600083815260200190815260200160002054905092915050565b60008073ffffffffffffffffffffffffffffffffffffffff168273ffffffffffffffffffffffffffffffffffffffff161415610e58576040517f08c379a0000000000000000000000000000000000000000000000000000000008152600401610e4f90613d21565b60405180910390fd5b600360008373ffffffffffffffffffffffffffffffffffffffff1673ffffffffffffffffffffffffffffffffffffffff168152602001908152602001600020549050919050565b610ea7611ea5565b73ffffffffffffffffffffffffffffffffffffffff16610ec5610fdc565b73ffffffffffffffffffffffffffffffffffffffff1614610f1b576040517f08c379a0000000000000000000000000000000000000000000000000000000008152600401610f1290613de1565b60405180910390fd5b600073ffffffffffffffffffffffffffffffffffffffff16600660009054906101000a900473ffffffffffffffffffffffffffffffffffffffff1673ffffffffffffffffffffffffffffffffffffffff167f8be0079c531659141344cd1fd0a4f28419497f9722a3daafe3b4186f6b6457e060405160405180910390a36000600660006101000a81548173ffffffffffffffffffffffffffffffffffffffff021916908373ffffffffffffffffffffffffffffffffffffffff160217905550565b6000600660009054906101000a900473ffffffffffffffffffffffffffffffffffffffff16905090565b60008061101687878787876121c2565b90508091505095945050505050565b606060018054611034906142ec565b80601f0160208091040260200160405190810160405280929190818152602001828054611060906142ec565b80156110ad5780601f10611082576101008083540402835291602001916110ad565b820191906000526020600020905b81548152906001019060200180831161109057829003601f168201915b5050505050905090565b600c60205281600052604060002081815481106110d357600080fd5b90600052602060002001600091509150505481565b6000600b54905090565b6110fa611ea5565b73ffffffffffffffffffffffffffffffffffffffff168273ffffffffffffffffffffffffffffffffffffffff161415611168576040517f08c379a000000000000000000000000000000000000000000000000000000000815260040161115f90613ca1565b60405180910390fd5b8060056000611175611ea5565b73ffffffffffffffffffffffffffffffffffffffff1673ffffffffffffffffffffffffffffffffffffffff16815260200190815260200160002060008473ffffffffffffffffffffffffffffffffffffffff1673ffffffffffffffffffffffffffffffffffffffff16815260200190815260200160002060006101000a81548160ff0219169083151502179055508173ffffffffffffffffffffffffffffffffffffffff16611222611ea5565b73ffffffffffffffffffffffffffffffffffffffff167f17307eab39ab6107e8899845ad3d59bd9653f200f220920489ca2b5937696c31836040516112679190613bc4565b60405180910390a35050565b600d602052816000526040600020602052806000526040600020600091509150505481565b6112a96112a3611ea5565b83611cc8565b6112e8576040517f08c379a00000000000000000000000000000000000000000000000000000000081526004016112df90613e61565b60405180910390fd5b6112f4848484846123de565b50505050565b60026007541415611340576040517f08c379a000000000000000000000000000000000000000000000000000000000815260040161133790613e81565b60405180910390fd5b6002600781905550611350610cc3565b15611390576040517f08c379a000000000000000000000000000000000000000000000000000000000815260040161138790613ce1565b60405180910390fd5b600073ffffffffffffffffffffffffffffffffffffffff168273ffffffffffffffffffffffffffffffffffffffff161415611400576040517f08c379a00000000000000000000000000000000000000000000000000000000081526004016113f790613c41565b60405180910390fd5b3073ffffffffffffffffffffffffffffffffffffffff168273ffffffffffffffffffffffffffffffffffffffff16141561146f576040517f08c379a000000000000000000000000000000000000000000000000000000000815260040161146690613d61565b60405180910390fd5b600d60008473ffffffffffffffffffffffffffffffffffffffff1673ffffffffffffffffffffffffffffffffffffffff16815260200190815260200160002060008281526020019081526020016000206000905580600d60008473ffffffffffffffffffffffffffffffffffffffff1673ffffffffffffffffffffffffffffffffffffffff168152602001908152602001600020600083815260200190815260200160002081905550611523838383610ca3565b6001600781905550505050565b606061153b82611e39565b61157a576040517f08c379a000000000000000000000000000000000000000000000000000000000815260040161157190613e21565b60405180910390fd5b600061158461243a565b905060008151116115a457604051806020016040528060008152506115cf565b806115ae84612451565b6040516020016115bf929190613a87565b6040516020818303038152906040525b915050919050565b60006115e1610cc3565b15611621576040517f08c379a000000000000000000000000000000000000000000000000000000000815260040161161890613ce1565b60405180910390fd5b3373ffffffffffffffffffffffffffffffffffffffff1661164184610cda565b73ffffffffffffffffffffffffffffffffffffffff1614801561169757503373ffffffffffffffffffffffffffffffffffffffff1661167f83610cda565b73ffffffffffffffffffffffffffffffffffffffff16145b6116d6576040517f08c379a00000000000000000000000000000000000000000000000000000000081526004016116cd90613da1565b60405180910390fd5b6000600e8481548110611712577f4e487b7100000000000000000000000000000000000000000000000000000000600052603260045260246000fd5b90600052602060002090600502016003015490506000600e8481548110611762577f4e487b7100000000000000000000000000000000000000000000000000000000600052603260045260246000fd5b9060005260206000209060050201600301549050600061178283836125fe565b9050600061179087876128b0565b905060006117a188888486336121c2565b90507f8e3541d6cb6a06d3a1785ca3c18fa6ca7b39a6278433734c442e2ebfe623e2ea81600e83815481106117ff577f4e487b7100000000000000000000000000000000000000000000000000000000600052603260045260246000fd5b906000526020600020906005020160030154600e848154811061184b577f4e487b7100000000000000000000000000000000000000000000000000000000600052603260045260246000fd5b906000526020600020906005020160040154600e8581548110611897577f4e487b7100000000000000000000000000000000000000000000000000000000600052603260045260246000fd5b906000526020600020906005020160000154600e86815481106118e3577f4e487b7100000000000000000000000000000000000000000000000000000000600052603260045260246000fd5b906000526020600020906005020160010154600e878154811061192f577f4e487b7100000000000000000000000000000000000000000000000000000000600052603260045260246000fd5b906000526020600020906005020160020154336040516119559796959493929190613f9e565b60405180910390a1809550505050505092915050565b6000600860019054906101000a900473ffffffffffffffffffffffffffffffffffffffff16905090565b6000600560008473ffffffffffffffffffffffffffffffffffffffff1673ffffffffffffffffffffffffffffffffffffffff16815260200190815260200160002060008373ffffffffffffffffffffffffffffffffffffffff1673ffffffffffffffffffffffffffffffffffffffff16815260200190815260200160002060009054906101000a900460ff16905092915050565b611a31611ea5565b73ffffffffffffffffffffffffffffffffffffffff16611a4f610fdc565b73ffffffffffffffffffffffffffffffffffffffff1614611aa5576040517f08c379a0000000000000000000000000000000000000000000000000000000008152600401611a9c90613de1565b60405180910390fd5b600954600a5410611aeb576040517f08c379a0000000000000000000000000000000000000000000000000000000008152600401611ae290613ea1565b60405180910390fd5b600a6000815480929190611afe9061431e565b9190505550611b12600080600084336121c2565b5050565b611b1e611ea5565b73ffffffffffffffffffffffffffffffffffffffff16611b3c610fdc565b73ffffffffffffffffffffffffffffffffffffffff1614611b92576040517f08c379a0000000000000000000000000000000000000000000000000000000008152600401611b8990613de1565b60405180910390fd5b600073ffffffffffffffffffffffffffffffffffffffff168173ffffffffffffffffffffffffffffffffffffffff161415611c02576040517f08c379a0000000000000000000000000000000000000000000000000000000008152600401611bf990613c21565b60405180910390fd5b8073ffffffffffffffffffffffffffffffffffffffff16600660009054906101000a900473ffffffffffffffffffffffffffffffffffffffff1673ffffffffffffffffffffffffffffffffffffffff167f8be0079c531659141344cd1fd0a4f28419497f9722a3daafe3b4186f6b6457e060405160405180910390a380600660006101000a81548173ffffffffffffffffffffffffffffffffffffffff021916908373ffffffffffffffffffffffffffffffffffffffff16021790555050565b60095481565b6000611cd382611e39565b611d12576040517f08c379a0000000000000000000000000000000000000000000000000000000008152600401611d0990613cc1565b60405180910390fd5b6000611d1d83610cda565b90508073ffffffffffffffffffffffffffffffffffffffff168473ffffffffffffffffffffffffffffffffffffffff161480611d8c57508373ffffffffffffffffffffffffffffffffffffffff16611d748461080b565b73ffffffffffffffffffffffffffffffffffffffff16145b80611d9d5750611d9c8185611995565b5b91505092915050565b60008183611db491906141cb565b905092915050565b600080823b905060008111915050919050565b60007f01ffc9a7000000000000000000000000000000000000000000000000000000007bffffffffffffffffffffffffffffffffffffffffffffffffffffffff1916827bffffffffffffffffffffffffffffffffffffffffffffffffffffffff1916149050919050565b60008073ffffffffffffffffffffffffffffffffffffffff166002600084815260200190815260200160002060009054906101000a900473ffffffffffffffffffffffffffffffffffffffff1673ffffffffffffffffffffffffffffffffffffffff1614159050919050565b600033905090565b816004600083815260200190815260200160002060006101000a81548173ffffffffffffffffffffffffffffffffffffffff021916908373ffffffffffffffffffffffffffffffffffffffff160217905550808273ffffffffffffffffffffffffffffffffffffffff16611f2083610cda565b73ffffffffffffffffffffffffffffffffffffffff167f8c5be1e5ebec7d5bd14f71427d1e84f3dd0314c0f7b2291e5b200ac8c7c3b92560405160405180910390a45050565b8273ffffffffffffffffffffffffffffffffffffffff16611f8682610cda565b73ffffffffffffffffffffffffffffffffffffffff1614611fdc576040517f08c379a0000000000000000000000000000000000000000000000000000000008152600401611fd390613e01565b60405180910390fd5b600073ffffffffffffffffffffffffffffffffffffffff168273ffffffffffffffffffffffffffffffffffffffff16141561204c576040517f08c379a000000000000000000000000000000000000000000000000000000000815260040161204390613c81565b60405180910390fd5b6120578383836129c7565b612062600082611ead565b6001600360008573ffffffffffffffffffffffffffffffffffffffff1673ffffffffffffffffffffffffffffffffffffffff16815260200190815260200160002060008282546120b291906141cb565b925050819055506001600360008473ffffffffffffffffffffffffffffffffffffffff1673ffffffffffffffffffffffffffffffffffffffff168152602001908152602001600020600082825461210991906140ea565b92505081905550816002600083815260200190815260200160002060006101000a81548173ffffffffffffffffffffffffffffffffffffffff021916908373ffffffffffffffffffffffffffffffffffffffff160217905550808273ffffffffffffffffffffffffffffffffffffffff168473ffffffffffffffffffffffffffffffffffffffff167fddf252ad1be2c89b69c2b068fc378daa952ba7f163c4a11628f55a4df523b3ef60405160405180910390a4505050565b60006121cc610cc3565b1561220c576040517f08c379a000000000000000000000000000000000000000000000000000000000815260040161220390613ce1565b60405180910390fd5b60006040518060a00160405280888152602001878152602001868152602001858152602001428152509050600b600081548092919061224a9061431e565b9190505550600e8190806001815401808255809150506001900390600052602060002090600502016000909190919091506000820151816000015560208201518160010155604082015181600201556060820151816003015560808201518160040155505060006122ca6001600e80549050611da690919063ffffffff16565b90506122d684826129cc565b80600d60008673ffffffffffffffffffffffffffffffffffffffff1673ffffffffffffffffffffffffffffffffffffffff168152602001908152602001600020600083815260200190815260200160002081905550600c60008573ffffffffffffffffffffffffffffffffffffffff1673ffffffffffffffffffffffffffffffffffffffff1681526020019081526020016000208190806001815401808255809150506001900390600052602060002001600090919091909150557f0b1e9a74eeaae184646d7a35062426460c8c9364005c6d441cce036dd9c655d584828a8a896040516123c8959493929190613b4f565b60405180910390a1809250505095945050505050565b6123e9848484611f66565b6123f5848484846129ea565b612434576040517f08c379a000000000000000000000000000000000000000000000000000000000815260040161242b90613c01565b60405180910390fd5b50505050565b606060405180602001604052806000815250905090565b60606000821415612499576040518060400160405280600181526020017f300000000000000000000000000000000000000000000000000000000000000081525090506125f9565b600082905060005b600082146124cb5780806124b49061431e565b915050600a826124c49190614140565b91506124a1565b60008167ffffffffffffffff81111561250d577f4e487b7100000000000000000000000000000000000000000000000000000000600052604160045260246000fd5b6040519080825280601f01601f19166020018201604052801561253f5781602001600182028036833780820191505090505b5090505b600085146125f25760018261255891906141cb565b9150600a856125679190614371565b603061257391906140ea565b60f81b8183815181106125af577f4e487b7100000000000000000000000000000000000000000000000000000000600052603260045260246000fd5b60200101907effffffffffffffffffffffffffffffffffffffffffffffffffffffffffffff1916908160001a905350600a856125eb9190614140565b9450612543565b8093505050505b919050565b6000612608612dbe565b6000612612612b81565b90506000600790506000600190505b60808111612727576000818460ff161614612690576064876126439190614371565b60ff16848360ff1660088110612682577f4e487b7100000000000000000000000000000000000000000000000000000000600052603260045260246000fd5b6020020181815250506126e6565b60648661269d9190614371565b60ff16848360ff16600881106126dc577f4e487b7100000000000000000000000000000000000000000000000000000000600052603260045260246000fd5b6020020181815250505b6064876126f39190614140565b96506064866127029190614140565b9550818061270f906142c2565b925091506002816127209190614171565b9050612621565b5060008260ff16600b54600e6001600e8054905061274591906141cb565b8154811061277c577f4e487b7100000000000000000000000000000000000000000000000000000000600052603260045260246000fd5b9060005260206000209060050201600301546040516020016127a093929190613aab565b6040516020818303038152906040528051906020012060001c9050600a6059826127ca9190614371565b6127d491906140ea565b90508084600060088110612811577f4e487b7100000000000000000000000000000000000000000000000000000000600052603260045260246000fd5b602002018181525050600080600090505b60088110156128a157858160088110612864577f4e487b7100000000000000000000000000000000000000000000000000000000600052603260045260246000fd5b60200201518261287491906140ea565b91506007811461288e5760648261288b9190614171565b91505b80806128999061431e565b915050612822565b50809550505050505092915050565b600080600e84815481106128ed577f4e487b7100000000000000000000000000000000000000000000000000000000600052603260045260246000fd5b90600052602060002090600502016002015490506000600e848154811061293d577f4e487b7100000000000000000000000000000000000000000000000000000000600052603260045260246000fd5b906000526020600020906005020160020154905060006002600a838561296391906140ea565b61296d9190614171565b6129779190614140565b90506000600a826129889190614371565b111561299d5760058161299b91906140ea565b505b60006001600a836129ae9190614140565b6129b891906140ea565b90508094505050505092915050565b505050565b6129e6828260405180602001604052806000815250612b95565b5050565b6000612a0b8473ffffffffffffffffffffffffffffffffffffffff16611dbc565b15612b74578373ffffffffffffffffffffffffffffffffffffffff1663150b7a02612a34611ea5565b8786866040518563ffffffff1660e01b8152600401612a569493929190613b03565b602060405180830381600087803b158015612a7057600080fd5b505af1925050508015612aa157506040513d601f19601f82011682018060405250810190612a9e9190613082565b60015b612b24573d8060008114612ad1576040519150601f19603f3d011682016040523d82523d6000602084013e612ad6565b606091505b50600081511415612b1c576040517f08c379a0000000000000000000000000000000000000000000000000000000008152600401612b1390613c01565b60405180910390fd5b805181602001fd5b63150b7a0260e01b7bffffffffffffffffffffffffffffffffffffffffffffffffffffffff1916817bffffffffffffffffffffffffffffffffffffffffffffffffffffffff191614915050612b79565b600190505b949350505050565b600060ff42612b909190614371565b905090565b612b9f8383612bf0565b612bac60008484846129ea565b612beb576040517f08c379a0000000000000000000000000000000000000000000000000000000008152600401612be290613c01565b60405180910390fd5b505050565b600073ffffffffffffffffffffffffffffffffffffffff168273ffffffffffffffffffffffffffffffffffffffff161415612c60576040517f08c379a0000000000000000000000000000000000000000000000000000000008152600401612c5790613d81565b60405180910390fd5b612c6981611e39565b15612ca9576040517f08c379a0000000000000000000000000000000000000000000000000000000008152600401612ca090613c61565b60405180910390fd5b612cb5600083836129c7565b6001600360008473ffffffffffffffffffffffffffffffffffffffff1673ffffffffffffffffffffffffffffffffffffffff1681526020019081526020016000206000828254612d0591906140ea565b92505081905550816002600083815260200190815260200160002060006101000a81548173ffffffffffffffffffffffffffffffffffffffff021916908373ffffffffffffffffffffffffffffffffffffffff160217905550808273ffffffffffffffffffffffffffffffffffffffff16600073ffffffffffffffffffffffffffffffffffffffff167fddf252ad1be2c89b69c2b068fc378daa952ba7f163c4a11628f55a4df523b3ef60405160405180910390a45050565b604051806101000160405280600890602082028036833780820191505090505090565b6000612df4612def8461403e565b61400d565b905082815260208101848484011115612e0c57600080fd5b612e17848285614280565b509392505050565b600081359050612e2e8161446f565b92915050565b600081359050612e4381614486565b92915050565b600081359050612e588161449d565b92915050565b600081519050612e6d8161449d565b92915050565b600082601f830112612e8457600080fd5b8135612e94848260208601612de1565b91505092915050565b600081359050612eac816144b4565b92915050565b600060208284031215612ec457600080fd5b6000612ed284828501612e1f565b91505092915050565b60008060408385031215612eee57600080fd5b6000612efc85828601612e1f565b9250506020612f0d85828601612e1f565b9150509250929050565b600080600060608486031215612f2c57600080fd5b6000612f3a86828701612e1f565b9350506020612f4b86828701612e1f565b9250506040612f5c86828701612e9d565b9150509250925092565b60008060008060808587031215612f7c57600080fd5b6000612f8a87828801612e1f565b9450506020612f9b87828801612e1f565b9350506040612fac87828801612e9d565b925050606085013567ffffffffffffffff811115612fc957600080fd5b612fd587828801612e73565b91505092959194509250565b60008060408385031215612ff457600080fd5b600061300285828601612e1f565b925050602061301385828601612e34565b9150509250929050565b6000806040838503121561303057600080fd5b600061303e85828601612e1f565b925050602061304f85828601612e9d565b9150509250929050565b60006020828403121561306b57600080fd5b600061307984828501612e49565b91505092915050565b60006020828403121561309457600080fd5b60006130a284828501612e5e565b91505092915050565b6000602082840312156130bd57600080fd5b60006130cb84828501612e9d565b91505092915050565b600080604083850312156130e757600080fd5b60006130f585828601612e9d565b925050602061310685828601612e9d565b9150509250929050565b600080600080600060a0868803121561312857600080fd5b600061313688828901612e9d565b955050602061314788828901612e9d565b945050604061315888828901612e9d565b935050606061316988828901612e9d565b925050608061317a88828901612e1f565b9150509295509295909350565b60006131938383613a52565b60208301905092915050565b6131a8816141ff565b82525050565b60006131b98261407e565b6131c381856140ac565b93506131ce8361406e565b8060005b838110156131ff5781516131e68882613187565b97506131f18361409f565b9250506001810190506131d2565b5085935050505092915050565b61321581614211565b82525050565b600061322682614089565b61323081856140bd565b935061324081856020860161428f565b6132498161445e565b840191505092915050565b600061325f82614094565b61326981856140ce565b935061327981856020860161428f565b6132828161445e565b840191505092915050565b600061329882614094565b6132a281856140df565b93506132b281856020860161428f565b80840191505092915050565b60006132cb6032836140ce565b91507f4552433732313a207472616e7366657220746f206e6f6e20455243373231526560008301527f63656976657220696d706c656d656e74657200000000000000000000000000006020830152604082019050919050565b60006133316026836140ce565b91507f4f776e61626c653a206e6577206f776e657220697320746865207a65726f206160008301527f64647265737300000000000000000000000000000000000000000000000000006020830152604082019050919050565b6000613397601c836140ce565b91507f7472616e7366657220746f20746865207a65726f2061646472657373000000006000830152602082019050919050565b60006133d7601c836140ce565b91507f4552433732313a20746f6b656e20616c7265616479206d696e746564000000006000830152602082019050919050565b60006134176024836140ce565b91507f4552433732313a207472616e7366657220746f20746865207a65726f2061646460008301527f72657373000000000000000000000000000000000000000000000000000000006020830152604082019050919050565b600061347d6019836140ce565b91507f4552433732313a20617070726f766520746f2063616c6c6572000000000000006000830152602082019050919050565b60006134bd602c836140ce565b91507f4552433732313a206f70657261746f7220717565727920666f72206e6f6e657860008301527f697374656e7420746f6b656e00000000000000000000000000000000000000006020830152604082019050919050565b60006135236010836140ce565b91507f5061757361626c653a20706175736564000000000000000000000000000000006000830152602082019050919050565b60006135636038836140ce565b91507f4552433732313a20617070726f76652063616c6c6572206973206e6f74206f7760008301527f6e6572206e6f7220617070726f76656420666f7220616c6c00000000000000006020830152604082019050919050565b60006135c9602a836140ce565b91507f4552433732313a2062616c616e636520717565727920666f7220746865207a6560008301527f726f2061646472657373000000000000000000000000000000000000000000006020830152604082019050919050565b600061362f6029836140ce565b91507f4552433732313a206f776e657220717565727920666f72206e6f6e657869737460008301527f656e7420746f6b656e00000000000000000000000000000000000000000000006020830152604082019050919050565b60006136956011836140ce565b91507f43616e2774207472616e7366657220746f0000000000000000000000000000006000830152602082019050919050565b60006136d56020836140ce565b91507f4552433732313a206d696e7420746f20746865207a65726f20616464726573736000830152602082019050919050565b60006137156023836140ce565b91507f6d757374206265206f776e6572206f6620626f746820706172656e7420746f6b60008301527f656e7300000000000000000000000000000000000000000000000000000000006020830152604082019050919050565b600061377b602c836140ce565b91507f4552433732313a20617070726f76656420717565727920666f72206e6f6e657860008301527f697374656e7420746f6b656e00000000000000000000000000000000000000006020830152604082019050919050565b60006137e16020836140ce565b91507f4f776e61626c653a2063616c6c6572206973206e6f7420746865206f776e65726000830152602082019050919050565b60006138216029836140ce565b91507f4552433732313a207472616e73666572206f6620746f6b656e2074686174206960008301527f73206e6f74206f776e00000000000000000000000000000000000000000000006020830152604082019050919050565b6000613887602f836140ce565b91507f4552433732314d657461646174613a2055524920717565727920666f72206e6f60008301527f6e6578697374656e7420746f6b656e00000000000000000000000000000000006020830152604082019050919050565b60006138ed6021836140ce565b91507f4552433732313a20617070726f76616c20746f2063757272656e74206f776e6560008301527f72000000000000000000000000000000000000000000000000000000000000006020830152604082019050919050565b60006139536031836140ce565b91507f4552433732313a207472616e736665722063616c6c6572206973206e6f74206f60008301527f776e6572206e6f7220617070726f7665640000000000000000000000000000006020830152604082019050919050565b60006139b9601f836140ce565b91507f5265656e7472616e637947756172643a207265656e7472616e742063616c6c006000830152602082019050919050565b60006139f96027836140ce565b91507f4d6178696d756d20616d6f756e74206f662067656e2030206d6f6e6b6579732060008301527f72656163686564000000000000000000000000000000000000000000000000006020830152604082019050919050565b613a5b81614269565b82525050565b613a6a81614269565b82525050565b613a81613a7c82614269565b614367565b82525050565b6000613a93828561328d565b9150613a9f828461328d565b91508190509392505050565b6000613ab78286613a70565b602082019150613ac78285613a70565b602082019150613ad78284613a70565b602082019150819050949350505050565b6000602082019050613afd600083018461319f565b92915050565b6000608082019050613b18600083018761319f565b613b25602083018661319f565b613b326040830185613a61565b8181036060830152613b44818461321b565b905095945050505050565b600060a082019050613b64600083018861319f565b613b716020830187613a61565b613b7e6040830186613a61565b613b8b6060830185613a61565b613b986080830184613a61565b9695505050505050565b60006020820190508181036000830152613bbc81846131ae565b905092915050565b6000602082019050613bd9600083018461320c565b92915050565b60006020820190508181036000830152613bf98184613254565b905092915050565b60006020820190508181036000830152613c1a816132be565b9050919050565b60006020820190508181036000830152613c3a81613324565b9050919050565b60006020820190508181036000830152613c5a8161338a565b9050919050565b60006020820190508181036000830152613c7a816133ca565b9050919050565b60006020820190508181036000830152613c9a8161340a565b9050919050565b60006020820190508181036000830152613cba81613470565b9050919050565b60006020820190508181036000830152613cda816134b0565b9050919050565b60006020820190508181036000830152613cfa81613516565b9050919050565b60006020820190508181036000830152613d1a81613556565b9050919050565b60006020820190508181036000830152613d3a816135bc565b9050919050565b60006020820190508181036000830152613d5a81613622565b9050919050565b60006020820190508181036000830152613d7a81613688565b9050919050565b60006020820190508181036000830152613d9a816136c8565b9050919050565b60006020820190508181036000830152613dba81613708565b9050919050565b60006020820190508181036000830152613dda8161376e565b9050919050565b60006020820190508181036000830152613dfa816137d4565b9050919050565b60006020820190508181036000830152613e1a81613814565b9050919050565b60006020820190508181036000830152613e3a8161387a565b9050919050565b60006020820190508181036000830152613e5a816138e0565b9050919050565b60006020820190508181036000830152613e7a81613946565b9050919050565b60006020820190508181036000830152613e9a816139ac565b9050919050565b60006020820190508181036000830152613eba816139ec565b9050919050565b6000602082019050613ed66000830184613a61565b92915050565b600060a082019050613ef16000830188613a61565b613efe6020830187613a61565b613f0b6040830186613a61565b613f186060830185613a61565b613f256080830184613a61565b9695505050505050565b600060e082019050613f44600083018a613a61565b613f516020830189613a61565b613f5e6040830188613a61565b613f6b6060830187613a61565b613f786080830186613a61565b613f8560a083018561319f565b613f9260c083018461319f565b98975050505050505050565b600060e082019050613fb3600083018a613a61565b613fc06020830189613a61565b613fcd6040830188613a61565b613fda6060830187613a61565b613fe76080830186613a61565b613ff460a0830185613a61565b61400160c083018461319f565b98975050505050505050565b6000604051905081810181811067ffffffffffffffff821117156140345761403361442f565b5b8060405250919050565b600067ffffffffffffffff8211156140595761405861442f565b5b601f19601f8301169050602081019050919050565b6000819050602082019050919050565b600081519050919050565b600081519050919050565b600081519050919050565b6000602082019050919050565b600082825260208201905092915050565b600082825260208201905092915050565b600082825260208201905092915050565b600081905092915050565b60006140f582614269565b915061410083614269565b9250827fffffffffffffffffffffffffffffffffffffffffffffffffffffffffffffffff03821115614135576141346143a2565b5b828201905092915050565b600061414b82614269565b915061415683614269565b925082614166576141656143d1565b5b828204905092915050565b600061417c82614269565b915061418783614269565b9250817fffffffffffffffffffffffffffffffffffffffffffffffffffffffffffffffff04831182151516156141c0576141bf6143a2565b5b828202905092915050565b60006141d682614269565b91506141e183614269565b9250828210156141f4576141f36143a2565b5b828203905092915050565b600061420a82614249565b9050919050565b60008115159050919050565b60007fffffffff0000000000000000000000000000000000000000000000000000000082169050919050565b600073ffffffffffffffffffffffffffffffffffffffff82169050919050565b6000819050919050565b600060ff82169050919050565b82818337600083830152505050565b60005b838110156142ad578082015181840152602081019050614292565b838111156142bc576000848401525b50505050565b60006142cd82614273565b915060008214156142e1576142e06143a2565b5b600182039050919050565b6000600282049050600182168061430457607f821691505b6020821081141561431857614317614400565b5b50919050565b600061432982614269565b91507fffffffffffffffffffffffffffffffffffffffffffffffffffffffffffffffff82141561435c5761435b6143a2565b5b600182019050919050565b6000819050919050565b600061437c82614269565b915061438783614269565b925082614397576143966143d1565b5b828206905092915050565b7f4e487b7100000000000000000000000000000000000000000000000000000000600052601160045260246000fd5b7f4e487b7100000000000000000000000000000000000000000000000000000000600052601260045260246000fd5b7f4e487b7100000000000000000000000000000000000000000000000000000000600052602260045260246000fd5b7f4e487b7100000000000000000000000000000000000000000000000000000000600052604160045260246000fd5b6000601f19601f8301169050919050565b614478816141ff565b811461448357600080fd5b50565b61448f81614211565b811461449a57600080fd5b50565b6144a68161421d565b81146144b157600080fd5b50565b6144bd81614269565b81146144c857600080fd5b5056fea2646970667358221220d043d46adfa15e53b281bd6d41d53f00705fa8fe608e10c249013cf91acc848b64736f6c63430008000033",
  "linkReferences": {},
  "deployedLinkReferences": {}
}