{
  "_format": "hh-sol-artifact-1",
  "contractName": "MonkeyContract",
  "sourceName": "contracts/MonkeyContract.sol",
  "abi": [
    {
      "inputs": [],
      "stateMutability": "nonpayable",
      "type": "constructor"
    },
    {
      "anonymous": false,
      "inputs": [
        {
          "indexed": true,
          "internalType": "address",
          "name": "owner",
          "type": "address"
        },
        {
          "indexed": true,
          "internalType": "address",
          "name": "approved",
          "type": "address"
        },
        {
          "indexed": true,
          "internalType": "uint256",
          "name": "tokenId",
          "type": "uint256"
        }
      ],
      "name": "Approval",
      "type": "event"
    },
    {
      "anonymous": false,
      "inputs": [
        {
          "indexed": true,
          "internalType": "address",
          "name": "owner",
          "type": "address"
        },
        {
          "indexed": true,
          "internalType": "address",
          "name": "operator",
          "type": "address"
        },
        {
          "indexed": false,
          "internalType": "bool",
          "name": "approved",
          "type": "bool"
        }
      ],
      "name": "ApprovalForAll",
      "type": "event"
    },
    {
      "anonymous": false,
      "inputs": [
        {
          "indexed": false,
          "internalType": "uint256",
          "name": "tokenId",
          "type": "uint256"
        },
        {
          "indexed": false,
          "internalType": "uint256",
          "name": "genes",
          "type": "uint256"
        },
        {
          "indexed": false,
          "internalType": "uint256",
          "name": "birthtime",
          "type": "uint256"
        },
        {
          "indexed": false,
          "internalType": "uint256",
          "name": "parent1Id",
          "type": "uint256"
        },
        {
          "indexed": false,
          "internalType": "uint256",
          "name": "parent2Id",
          "type": "uint256"
        },
        {
          "indexed": false,
          "internalType": "uint256",
          "name": "generation",
          "type": "uint256"
        },
        {
          "indexed": false,
          "internalType": "address",
          "name": "owner",
          "type": "address"
        }
      ],
      "name": "BreedingSuccessful",
      "type": "event"
    },
    {
      "anonymous": false,
      "inputs": [
        {
          "indexed": false,
          "internalType": "address",
          "name": "owner",
          "type": "address"
        },
        {
          "indexed": false,
          "internalType": "uint256",
          "name": "tokenId",
          "type": "uint256"
        },
        {
          "indexed": false,
          "internalType": "uint256",
          "name": "parent1Id",
          "type": "uint256"
        },
        {
          "indexed": false,
          "internalType": "uint256",
          "name": "parent2Id",
          "type": "uint256"
        },
        {
          "indexed": false,
          "internalType": "uint256",
          "name": "genes",
          "type": "uint256"
        }
      ],
      "name": "MonkeyCreated",
      "type": "event"
    },
    {
      "anonymous": false,
      "inputs": [
        {
          "indexed": true,
          "internalType": "address",
          "name": "previousOwner",
          "type": "address"
        },
        {
          "indexed": true,
          "internalType": "address",
          "name": "newOwner",
          "type": "address"
        }
      ],
      "name": "OwnershipTransferred",
      "type": "event"
    },
    {
      "anonymous": false,
      "inputs": [
        {
          "indexed": false,
          "internalType": "address",
          "name": "account",
          "type": "address"
        }
      ],
      "name": "Paused",
      "type": "event"
    },
    {
      "anonymous": false,
      "inputs": [
        {
          "indexed": true,
          "internalType": "address",
          "name": "from",
          "type": "address"
        },
        {
          "indexed": true,
          "internalType": "address",
          "name": "to",
          "type": "address"
        },
        {
          "indexed": true,
          "internalType": "uint256",
          "name": "tokenId",
          "type": "uint256"
        }
      ],
      "name": "Transfer",
      "type": "event"
    },
    {
      "anonymous": false,
      "inputs": [
        {
          "indexed": false,
          "internalType": "address",
          "name": "account",
          "type": "address"
        }
      ],
      "name": "Unpaused",
      "type": "event"
    },
    {
      "inputs": [],
      "name": "GEN0_Limit",
      "outputs": [
        {
          "internalType": "uint256",
          "name": "",
          "type": "uint256"
        }
      ],
      "stateMutability": "view",
      "type": "function"
    },
    {
      "inputs": [
        {
          "internalType": "uint256",
          "name": "",
          "type": "uint256"
        }
      ],
      "name": "allMonkeysArray",
      "outputs": [
        {
          "internalType": "uint256",
          "name": "parent1Id",
          "type": "uint256"
        },
        {
          "internalType": "uint256",
          "name": "parent2Id",
          "type": "uint256"
        },
        {
          "internalType": "uint256",
          "name": "generation",
          "type": "uint256"
        },
        {
          "internalType": "uint256",
          "name": "genes",
          "type": "uint256"
        },
        {
          "internalType": "uint256",
          "name": "birthtime",
          "type": "uint256"
        }
      ],
      "stateMutability": "view",
      "type": "function"
    },
    {
      "inputs": [
        {
          "internalType": "address",
          "name": "to",
          "type": "address"
        },
        {
          "internalType": "uint256",
          "name": "tokenId",
          "type": "uint256"
        }
      ],
      "name": "approve",
      "outputs": [],
      "stateMutability": "nonpayable",
      "type": "function"
    },
    {
      "inputs": [
        {
          "internalType": "address",
          "name": "owner",
          "type": "address"
        }
      ],
      "name": "balanceOf",
      "outputs": [
        {
          "internalType": "uint256",
          "name": "",
          "type": "uint256"
        }
      ],
      "stateMutability": "view",
      "type": "function"
    },
    {
      "inputs": [
        {
          "internalType": "uint256",
          "name": "_parent1Id",
          "type": "uint256"
        },
        {
          "internalType": "uint256",
          "name": "_parent2Id",
          "type": "uint256"
        }
      ],
      "name": "breed",
      "outputs": [
        {
          "internalType": "uint256",
          "name": "",
          "type": "uint256"
        }
      ],
      "stateMutability": "nonpayable",
      "type": "function"
    },
    {
      "inputs": [
        {
          "internalType": "uint256",
          "name": "_genes",
          "type": "uint256"
        }
      ],
      "name": "createGen0Monkey",
      "outputs": [],
      "stateMutability": "nonpayable",
      "type": "function"
    },
    {
      "inputs": [
        {
          "internalType": "uint256",
          "name": "_parent1Id",
          "type": "uint256"
        },
        {
          "internalType": "uint256",
          "name": "_parent2Id",
          "type": "uint256"
        },
        {
          "internalType": "uint256",
          "name": "_generation",
          "type": "uint256"
        },
        {
          "internalType": "uint256",
          "name": "_genes",
          "type": "uint256"
        },
        {
          "internalType": "address",
          "name": "_owner",
          "type": "address"
        }
      ],
      "name": "createMonkey",
      "outputs": [
        {
          "internalType": "uint256",
          "name": "",
          "type": "uint256"
        }
      ],
      "stateMutability": "nonpayable",
      "type": "function"
    },
    {
      "inputs": [
        {
          "internalType": "address",
          "name": "owner",
          "type": "address"
        }
      ],
      "name": "findMonkeyIdsOfAddress",
      "outputs": [
        {
          "internalType": "uint256[]",
          "name": "",
          "type": "uint256[]"
        }
      ],
      "stateMutability": "view",
      "type": "function"
    },
    {
      "inputs": [],
      "name": "gen0amountTotal",
      "outputs": [
        {
          "internalType": "uint256",
          "name": "",
          "type": "uint256"
        }
      ],
      "stateMutability": "view",
      "type": "function"
    },
    {
      "inputs": [
        {
          "internalType": "uint256",
          "name": "tokenId",
          "type": "uint256"
        }
      ],
      "name": "getApproved",
      "outputs": [
        {
          "internalType": "address",
          "name": "",
          "type": "address"
        }
      ],
      "stateMutability": "view",
      "type": "function"
    },
    {
      "inputs": [],
      "name": "getMonkeyContractAddress",
      "outputs": [
        {
          "internalType": "address",
          "name": "",
          "type": "address"
        }
      ],
      "stateMutability": "view",
      "type": "function"
    },
    {
      "inputs": [
        {
          "internalType": "uint256",
          "name": "tokenId",
          "type": "uint256"
        }
      ],
      "name": "getMonkeyDetails",
      "outputs": [
        {
          "internalType": "uint256",
          "name": "genes",
          "type": "uint256"
        },
        {
          "internalType": "uint256",
          "name": "birthtime",
          "type": "uint256"
        },
        {
          "internalType": "uint256",
          "name": "parent1Id",
          "type": "uint256"
        },
        {
          "internalType": "uint256",
          "name": "parent2Id",
          "type": "uint256"
        },
        {
          "internalType": "uint256",
          "name": "generation",
          "type": "uint256"
        },
        {
          "internalType": "address",
          "name": "owner",
          "type": "address"
        },
        {
          "internalType": "address",
          "name": "approvedAddress",
          "type": "address"
        }
      ],
      "stateMutability": "view",
      "type": "function"
    },
    {
      "inputs": [
        {
          "internalType": "address",
          "name": "owner",
          "type": "address"
        },
        {
          "internalType": "address",
          "name": "operator",
          "type": "address"
        }
      ],
      "name": "isApprovedForAll",
      "outputs": [
        {
          "internalType": "bool",
          "name": "",
          "type": "bool"
        }
      ],
      "stateMutability": "view",
      "type": "function"
    },
    {
      "inputs": [],
      "name": "name",
      "outputs": [
        {
          "internalType": "string",
          "name": "",
          "type": "string"
        }
      ],
      "stateMutability": "view",
      "type": "function"
    },
    {
      "inputs": [],
      "name": "owner",
      "outputs": [
        {
          "internalType": "address",
          "name": "",
          "type": "address"
        }
      ],
      "stateMutability": "view",
      "type": "function"
    },
    {
      "inputs": [
        {
          "internalType": "uint256",
          "name": "tokenId",
          "type": "uint256"
        }
      ],
      "name": "ownerOf",
      "outputs": [
        {
          "internalType": "address",
          "name": "",
          "type": "address"
        }
      ],
      "stateMutability": "view",
      "type": "function"
    },
    {
      "inputs": [],
      "name": "paused",
      "outputs": [
        {
          "internalType": "bool",
          "name": "",
          "type": "bool"
        }
      ],
      "stateMutability": "view",
      "type": "function"
    },
    {
      "inputs": [],
      "name": "renounceOwnership",
      "outputs": [],
      "stateMutability": "nonpayable",
      "type": "function"
    },
    {
      "inputs": [
        {
          "internalType": "address",
          "name": "from",
          "type": "address"
        },
        {
          "internalType": "address",
          "name": "to",
          "type": "address"
        },
        {
          "internalType": "uint256",
          "name": "tokenId",
          "type": "uint256"
        }
      ],
      "name": "safeTransferFrom",
      "outputs": [],
      "stateMutability": "nonpayable",
      "type": "function"
    },
    {
      "inputs": [
        {
          "internalType": "address",
          "name": "from",
          "type": "address"
        },
        {
          "internalType": "address",
          "name": "to",
          "type": "address"
        },
        {
          "internalType": "uint256",
          "name": "tokenId",
          "type": "uint256"
        },
        {
          "internalType": "bytes",
          "name": "_data",
          "type": "bytes"
        }
      ],
      "name": "safeTransferFrom",
      "outputs": [],
      "stateMutability": "nonpayable",
      "type": "function"
    },
    {
      "inputs": [
        {
          "internalType": "address",
          "name": "operator",
          "type": "address"
        },
        {
          "internalType": "bool",
          "name": "approved",
          "type": "bool"
        }
      ],
      "name": "setApprovalForAll",
      "outputs": [],
      "stateMutability": "nonpayable",
      "type": "function"
    },
    {
      "inputs": [],
      "name": "showTotalSupply",
      "outputs": [
        {
          "internalType": "uint256",
          "name": "",
          "type": "uint256"
        }
      ],
      "stateMutability": "view",
      "type": "function"
    },
    {
      "inputs": [
        {
          "internalType": "bytes4",
          "name": "interfaceId",
          "type": "bytes4"
        }
      ],
      "name": "supportsInterface",
      "outputs": [
        {
          "internalType": "bool",
          "name": "",
          "type": "bool"
        }
      ],
      "stateMutability": "view",
      "type": "function"
    },
    {
      "inputs": [],
      "name": "symbol",
      "outputs": [
        {
          "internalType": "string",
          "name": "",
          "type": "string"
        }
      ],
      "stateMutability": "view",
      "type": "function"
    },
    {
      "inputs": [
        {
          "internalType": "uint256",
          "name": "tokenId",
          "type": "uint256"
        }
      ],
      "name": "tokenURI",
      "outputs": [
        {
          "internalType": "string",
          "name": "",
          "type": "string"
        }
      ],
      "stateMutability": "view",
      "type": "function"
    },
    {
      "inputs": [],
      "name": "totalSupply",
      "outputs": [
        {
          "internalType": "uint256",
          "name": "",
          "type": "uint256"
        }
      ],
      "stateMutability": "view",
      "type": "function"
    },
    {
      "inputs": [
        {
          "internalType": "address",
          "name": "_from",
          "type": "address"
        },
        {
          "internalType": "address",
          "name": "_to",
          "type": "address"
        },
        {
          "internalType": "uint256",
          "name": "_tokenId",
          "type": "uint256"
        }
      ],
      "name": "transfer",
      "outputs": [],
      "stateMutability": "nonpayable",
      "type": "function"
    },
    {
      "inputs": [
        {
          "internalType": "address",
          "name": "from",
          "type": "address"
        },
        {
          "internalType": "address",
          "name": "to",
          "type": "address"
        },
        {
          "internalType": "uint256",
          "name": "tokenId",
          "type": "uint256"
        }
      ],
      "name": "transferFrom",
      "outputs": [],
      "stateMutability": "nonpayable",
      "type": "function"
    },
    {
      "inputs": [
        {
          "internalType": "address",
          "name": "newOwner",
          "type": "address"
        }
      ],
      "name": "transferOwnership",
      "outputs": [],
      "stateMutability": "nonpayable",
      "type": "function"
    }
  ],
  "bytecode": "0x6080604052600c6009553480156200001657600080fd5b506040518060400160405280600e81526020017f43727970746f204d6f6e6b6579730000000000000000000000000000000000008152506040518060400160405280600681526020017f4d4f4e4b4559000000000000000000000000000000000000000000000000000081525081600090805190602001906200009b929190620001da565b508060019080519060200190620000b4929190620001da565b5050506000620000c9620001d260201b60201c565b905080600660006101000a81548173ffffffffffffffffffffffffffffffffffffffff021916908373ffffffffffffffffffffffffffffffffffffffff1602179055508073ffffffffffffffffffffffffffffffffffffffff16600073ffffffffffffffffffffffffffffffffffffffff167f8be0079c531659141344cd1fd0a4f28419497f9722a3daafe3b4186f6b6457e060405160405180910390a35060016007819055506000600860006101000a81548160ff02191690831515021790555030600860016101000a81548173ffffffffffffffffffffffffffffffffffffffff021916908373ffffffffffffffffffffffffffffffffffffffff160217905550620002ef565b600033905090565b828054620001e8906200028a565b90600052602060002090601f0160209004810192826200020c576000855562000258565b82601f106200022757805160ff191683800117855562000258565b8280016001018555821562000258579182015b82811115620002575782518255916020019190600101906200023a565b5b5090506200026791906200026b565b5090565b5b80821115620002865760008160009055506001016200026c565b5090565b60006002820490506001821680620002a357607f821691505b60208210811415620002ba57620002b9620002c0565b5b50919050565b7f4e487b7100000000000000000000000000000000000000000000000000000000600052602260045260246000fd5b61442880620002ff6000396000f3fe608060405234801561001057600080fd5b50600436106101cf5760003560e01c8063715018a611610104578063beabacc8116100a2578063e985e9c511610071578063e985e9c514610560578063ef742fc114610590578063f2fde38b146105ac578063f91ba674146105c8576101cf565b8063beabacc8146104c6578063c87b56dd146104e2578063d9ecad7b14610512578063daa97fae14610542576101cf565b806395d89b41116100de57806395d89b4114610452578063a0b7cb0714610470578063a22cb4651461048e578063b88d4fde146104aa576101cf565b8063715018a6146103fa5780638da5cb5b1461040457806390ba348514610422576101cf565b80631b4172781161017157806342842e0e1161014b57806342842e0e146103605780635c975abb1461037c5780636352211e1461039a57806370a08231146103ca576101cf565b80631b417278146102da57806323b872dd1461030e5780632558e25f1461032a576101cf565b80630917cffe116101ad5780630917cffe14610252578063095ea7b31461027057806318160ddd1461028c5780631b0a1aed146102aa576101cf565b806301ffc9a7146101d457806306fdde0314610204578063081812fc14610222575b600080fd5b6101ee60048036038101906101e99190612f79565b6105e6565b6040516101fb9190613ae4565b60405180910390f35b61020c6106c8565b6040516102199190613aff565b60405180910390f35b61023c60048036038101906102379190612fcb565b61075a565b6040516102499190613a08565b60405180910390f35b61025a6107df565b6040516102679190613e1f565b60405180910390f35b61028a60048036038101906102859190612f3d565b6107e5565b005b6102946108fd565b6040516102a19190613e1f565b60405180910390f35b6102c460048036038101906102bf9190612dd2565b610903565b6040516102d19190613ac2565b60405180910390f35b6102f460048036038101906102ef9190612fcb565b610a43565b604051610305959493929190613e3a565b60405180910390f35b61032860048036038101906103239190612e37565b610a89565b005b610344600480360381019061033f9190612fcb565b610ae9565b6040516103579796959493929190613e8d565b60405180910390f35b61037a60048036038101906103759190612e37565b610c9b565b005b610384610cbb565b6040516103919190613ae4565b60405180910390f35b6103b460048036038101906103af9190612fcb565b610cd2565b6040516103c19190613a08565b60405180910390f35b6103e460048036038101906103df9190612dd2565b610d84565b6040516103f19190613e1f565b60405180910390f35b610402610e3c565b005b61040c610f79565b6040516104199190613a08565b60405180910390f35b61043c60048036038101906104379190613030565b610fa3565b6040516104499190613e1f565b60405180910390f35b61045a610fc2565b6040516104679190613aff565b60405180910390f35b610478611054565b6040516104859190613e1f565b60405180910390f35b6104a860048036038101906104a39190612f01565b61105e565b005b6104c460048036038101906104bf9190612e86565b6111df565b005b6104e060048036038101906104db9190612e37565b611241565b005b6104fc60048036038101906104f79190612fcb565b6113ef565b6040516105099190613aff565b60405180910390f35b61052c60048036038101906105279190612ff4565b611496565b6040516105399190613e1f565b60405180910390f35b61054a611846565b6040516105579190613a08565b60405180910390f35b61057a60048036038101906105759190612dfb565b611870565b6040516105879190613ae4565b60405180910390f35b6105aa60048036038101906105a59190612fcb565b611904565b005b6105c660048036038101906105c19190612dd2565b6119f8565b005b6105d0611ba4565b6040516105dd9190613e1f565b60405180910390f35b60007f80ac58cd000000000000000000000000000000000000000000000000000000007bffffffffffffffffffffffffffffffffffffffffffffffffffffffff1916827bffffffffffffffffffffffffffffffffffffffffffffffffffffffff191614806106b157507f5b5e139f000000000000000000000000000000000000000000000000000000007bffffffffffffffffffffffffffffffffffffffffffffffffffffffff1916827bffffffffffffffffffffffffffffffffffffffffffffffffffffffff1916145b806106c157506106c082611baa565b5b9050919050565b6060600080546106d790614213565b80601f016020809104026020016040519081016040528092919081815260200182805461070390614213565b80156107505780601f1061072557610100808354040283529160200191610750565b820191906000526020600020905b81548152906001019060200180831161073357829003601f168201915b5050505050905090565b600061076582611c14565b6107a4576040517f08c379a000000000000000000000000000000000000000000000000000000000815260040161079b90613d1f565b60405180910390fd5b6004600083815260200190815260200160002060009054906101000a900473ffffffffffffffffffffffffffffffffffffffff169050919050565b600a5481565b60006107f082610cd2565b90508073ffffffffffffffffffffffffffffffffffffffff168373ffffffffffffffffffffffffffffffffffffffff161415610861576040517f08c379a000000000000000000000000000000000000000000000000000000000815260040161085890613d9f565b60405180910390fd5b8073ffffffffffffffffffffffffffffffffffffffff16610880611c80565b73ffffffffffffffffffffffffffffffffffffffff1614806108af57506108ae816108a9611c80565b611870565b5b6108ee576040517f08c379a00000000000000000000000000000000000000000000000000000000081526004016108e590613c5f565b60405180910390fd5b6108f88383611c88565b505050565b600b5481565b6060600061091083610d84565b90506000808267ffffffffffffffff811115610955577f4e487b7100000000000000000000000000000000000000000000000000000000600052604160045260246000fd5b6040519080825280602002602001820160405280156109835781602001602082028036833780820191505090505b50905060005b600b54811015610a37578573ffffffffffffffffffffffffffffffffffffffff166109b382610cd2565b73ffffffffffffffffffffffffffffffffffffffff161415610a245780828481518110610a09577f4e487b7100000000000000000000000000000000000000000000000000000000600052603260045260246000fd5b6020026020010181815250508280610a2090614245565b9350505b8080610a2f90614245565b915050610989565b50809350505050919050565b600c8181548110610a5357600080fd5b90600052602060002090600502016000915090508060000154908060010154908060020154908060030154908060040154905085565b610a9a610a94611c80565b82611d41565b610ad9576040517f08c379a0000000000000000000000000000000000000000000000000000000008152600401610ad090613dbf565b60405180910390fd5b610ae4838383611e1f565b505050565b6000806000806000806000600c8881548110610b2e577f4e487b7100000000000000000000000000000000000000000000000000000000600052603260045260246000fd5b906000526020600020906005020160030154600c8981548110610b7a577f4e487b7100000000000000000000000000000000000000000000000000000000600052603260045260246000fd5b906000526020600020906005020160040154600c8a81548110610bc6577f4e487b7100000000000000000000000000000000000000000000000000000000600052603260045260246000fd5b906000526020600020906005020160000154600c8b81548110610c12577f4e487b7100000000000000000000000000000000000000000000000000000000600052603260045260246000fd5b906000526020600020906005020160010154600c8c81548110610c5e577f4e487b7100000000000000000000000000000000000000000000000000000000600052603260045260246000fd5b906000526020600020906005020160020154610c798d610cd2565b610c828e61075a565b9650965096509650965096509650919395979092949650565b610cb6838383604051806020016040528060008152506111df565b505050565b6000600860009054906101000a900460ff16905090565b6000806002600084815260200190815260200160002060009054906101000a900473ffffffffffffffffffffffffffffffffffffffff169050600073ffffffffffffffffffffffffffffffffffffffff168173ffffffffffffffffffffffffffffffffffffffff161415610d7b576040517f08c379a0000000000000000000000000000000000000000000000000000000008152600401610d7290613c9f565b60405180910390fd5b80915050919050565b60008073ffffffffffffffffffffffffffffffffffffffff168273ffffffffffffffffffffffffffffffffffffffff161415610df5576040517f08c379a0000000000000000000000000000000000000000000000000000000008152600401610dec90613c7f565b60405180910390fd5b600360008373ffffffffffffffffffffffffffffffffffffffff1673ffffffffffffffffffffffffffffffffffffffff168152602001908152602001600020549050919050565b610e44611c80565b73ffffffffffffffffffffffffffffffffffffffff16610e62610f79565b73ffffffffffffffffffffffffffffffffffffffff1614610eb8576040517f08c379a0000000000000000000000000000000000000000000000000000000008152600401610eaf90613d3f565b60405180910390fd5b600073ffffffffffffffffffffffffffffffffffffffff16600660009054906101000a900473ffffffffffffffffffffffffffffffffffffffff1673ffffffffffffffffffffffffffffffffffffffff167f8be0079c531659141344cd1fd0a4f28419497f9722a3daafe3b4186f6b6457e060405160405180910390a36000600660006101000a81548173ffffffffffffffffffffffffffffffffffffffff021916908373ffffffffffffffffffffffffffffffffffffffff160217905550565b6000600660009054906101000a900473ffffffffffffffffffffffffffffffffffffffff16905090565b600080610fb3878787878761207b565b90508091505095945050505050565b606060018054610fd190614213565b80601f0160208091040260200160405190810160405280929190818152602001828054610ffd90614213565b801561104a5780601f1061101f5761010080835404028352916020019161104a565b820191906000526020600020905b81548152906001019060200180831161102d57829003601f168201915b5050505050905090565b6000600b54905090565b611066611c80565b73ffffffffffffffffffffffffffffffffffffffff168273ffffffffffffffffffffffffffffffffffffffff1614156110d4576040517f08c379a00000000000000000000000000000000000000000000000000000000081526004016110cb90613bff565b60405180910390fd5b80600560006110e1611c80565b73ffffffffffffffffffffffffffffffffffffffff1673ffffffffffffffffffffffffffffffffffffffff16815260200190815260200160002060008473ffffffffffffffffffffffffffffffffffffffff1673ffffffffffffffffffffffffffffffffffffffff16815260200190815260200160002060006101000a81548160ff0219169083151502179055508173ffffffffffffffffffffffffffffffffffffffff1661118e611c80565b73ffffffffffffffffffffffffffffffffffffffff167f17307eab39ab6107e8899845ad3d59bd9653f200f220920489ca2b5937696c31836040516111d39190613ae4565b60405180910390a35050565b6111f06111ea611c80565b83611d41565b61122f576040517f08c379a000000000000000000000000000000000000000000000000000000000815260040161122690613dbf565b60405180910390fd5b61123b8484848461221c565b50505050565b60026007541415611287576040517f08c379a000000000000000000000000000000000000000000000000000000000815260040161127e90613ddf565b60405180910390fd5b6002600781905550611297610cbb565b156112d7576040517f08c379a00000000000000000000000000000000000000000000000000000000081526004016112ce90613c3f565b60405180910390fd5b600073ffffffffffffffffffffffffffffffffffffffff168273ffffffffffffffffffffffffffffffffffffffff161415611347576040517f08c379a000000000000000000000000000000000000000000000000000000000815260040161133e90613b9f565b60405180910390fd5b3073ffffffffffffffffffffffffffffffffffffffff168273ffffffffffffffffffffffffffffffffffffffff1614156113b6576040517f08c379a00000000000000000000000000000000000000000000000000000000081526004016113ad90613cbf565b60405180910390fd5b600115156113cb6113c5611c80565b83611d41565b1515146113d757600080fd5b6113e2838383610c9b565b6001600781905550505050565b60606113fa82611c14565b611439576040517f08c379a000000000000000000000000000000000000000000000000000000000815260040161143090613d7f565b60405180910390fd5b6000611443612278565b90506000815111611463576040518060200160405280600081525061148e565b8061146d8461228f565b60405160200161147e9291906139a7565b6040516020818303038152906040525b915050919050565b60006114a0610cbb565b156114e0576040517f08c379a00000000000000000000000000000000000000000000000000000000081526004016114d790613c3f565b60405180910390fd5b6114e8611c80565b73ffffffffffffffffffffffffffffffffffffffff1661150784610cd2565b73ffffffffffffffffffffffffffffffffffffffff16148015611564575061152d611c80565b73ffffffffffffffffffffffffffffffffffffffff1661154c83610cd2565b73ffffffffffffffffffffffffffffffffffffffff16145b6115a3576040517f08c379a000000000000000000000000000000000000000000000000000000000815260040161159a90613cff565b60405180910390fd5b6000600c84815481106115df577f4e487b7100000000000000000000000000000000000000000000000000000000600052603260045260246000fd5b90600052602060002090600502016003015490506000600c848154811061162f577f4e487b7100000000000000000000000000000000000000000000000000000000600052603260045260246000fd5b9060005260206000209060050201600301549050600061164f838361243c565b9050600061165d87876126df565b9050600061167588888486611670611c80565b61207b565b90507f8e3541d6cb6a06d3a1785ca3c18fa6ca7b39a6278433734c442e2ebfe623e2ea81600c83815481106116d3577f4e487b7100000000000000000000000000000000000000000000000000000000600052603260045260246000fd5b906000526020600020906005020160030154600c848154811061171f577f4e487b7100000000000000000000000000000000000000000000000000000000600052603260045260246000fd5b906000526020600020906005020160040154600c858154811061176b577f4e487b7100000000000000000000000000000000000000000000000000000000600052603260045260246000fd5b906000526020600020906005020160000154600c86815481106117b7577f4e487b7100000000000000000000000000000000000000000000000000000000600052603260045260246000fd5b906000526020600020906005020160010154600c8781548110611803577f4e487b7100000000000000000000000000000000000000000000000000000000600052603260045260246000fd5b90600052602060002090600502016002015461181d611c80565b6040516118309796959493929190613efc565b60405180910390a1809550505050505092915050565b6000600860019054906101000a900473ffffffffffffffffffffffffffffffffffffffff16905090565b6000600560008473ffffffffffffffffffffffffffffffffffffffff1673ffffffffffffffffffffffffffffffffffffffff16815260200190815260200160002060008373ffffffffffffffffffffffffffffffffffffffff1673ffffffffffffffffffffffffffffffffffffffff16815260200190815260200160002060009054906101000a900460ff16905092915050565b61190c611c80565b73ffffffffffffffffffffffffffffffffffffffff1661192a610f79565b73ffffffffffffffffffffffffffffffffffffffff1614611980576040517f08c379a000000000000000000000000000000000000000000000000000000000815260040161197790613d3f565b60405180910390fd5b600954600a54106119c6576040517f08c379a00000000000000000000000000000000000000000000000000000000081526004016119bd90613dff565b60405180910390fd5b600a60008154809291906119d990614245565b91905055506119f46000806000846119ef611c80565b61207b565b5050565b611a00611c80565b73ffffffffffffffffffffffffffffffffffffffff16611a1e610f79565b73ffffffffffffffffffffffffffffffffffffffff1614611a74576040517f08c379a0000000000000000000000000000000000000000000000000000000008152600401611a6b90613d3f565b60405180910390fd5b600073ffffffffffffffffffffffffffffffffffffffff168173ffffffffffffffffffffffffffffffffffffffff161415611ae4576040517f08c379a0000000000000000000000000000000000000000000000000000000008152600401611adb90613b7f565b60405180910390fd5b8073ffffffffffffffffffffffffffffffffffffffff16600660009054906101000a900473ffffffffffffffffffffffffffffffffffffffff1673ffffffffffffffffffffffffffffffffffffffff167f8be0079c531659141344cd1fd0a4f28419497f9722a3daafe3b4186f6b6457e060405160405180910390a380600660006101000a81548173ffffffffffffffffffffffffffffffffffffffff021916908373ffffffffffffffffffffffffffffffffffffffff16021790555050565b60095481565b60007f01ffc9a7000000000000000000000000000000000000000000000000000000007bffffffffffffffffffffffffffffffffffffffffffffffffffffffff1916827bffffffffffffffffffffffffffffffffffffffffffffffffffffffff1916149050919050565b60008073ffffffffffffffffffffffffffffffffffffffff166002600084815260200190815260200160002060009054906101000a900473ffffffffffffffffffffffffffffffffffffffff1673ffffffffffffffffffffffffffffffffffffffff1614159050919050565b600033905090565b816004600083815260200190815260200160002060006101000a81548173ffffffffffffffffffffffffffffffffffffffff021916908373ffffffffffffffffffffffffffffffffffffffff160217905550808273ffffffffffffffffffffffffffffffffffffffff16611cfb83610cd2565b73ffffffffffffffffffffffffffffffffffffffff167f8c5be1e5ebec7d5bd14f71427d1e84f3dd0314c0f7b2291e5b200ac8c7c3b92560405160405180910390a45050565b6000611d4c82611c14565b611d8b576040517f08c379a0000000000000000000000000000000000000000000000000000000008152600401611d8290613c1f565b60405180910390fd5b6000611d9683610cd2565b90508073ffffffffffffffffffffffffffffffffffffffff168473ffffffffffffffffffffffffffffffffffffffff161480611e0557508373ffffffffffffffffffffffffffffffffffffffff16611ded8461075a565b73ffffffffffffffffffffffffffffffffffffffff16145b80611e165750611e158185611870565b5b91505092915050565b8273ffffffffffffffffffffffffffffffffffffffff16611e3f82610cd2565b73ffffffffffffffffffffffffffffffffffffffff1614611e95576040517f08c379a0000000000000000000000000000000000000000000000000000000008152600401611e8c90613d5f565b60405180910390fd5b600073ffffffffffffffffffffffffffffffffffffffff168273ffffffffffffffffffffffffffffffffffffffff161415611f05576040517f08c379a0000000000000000000000000000000000000000000000000000000008152600401611efc90613bdf565b60405180910390fd5b611f108383836127f6565b611f1b600082611c88565b6001600360008573ffffffffffffffffffffffffffffffffffffffff1673ffffffffffffffffffffffffffffffffffffffff1681526020019081526020016000206000828254611f6b9190614129565b925050819055506001600360008473ffffffffffffffffffffffffffffffffffffffff1673ffffffffffffffffffffffffffffffffffffffff1681526020019081526020016000206000828254611fc29190614048565b92505081905550816002600083815260200190815260200160002060006101000a81548173ffffffffffffffffffffffffffffffffffffffff021916908373ffffffffffffffffffffffffffffffffffffffff160217905550808273ffffffffffffffffffffffffffffffffffffffff168473ffffffffffffffffffffffffffffffffffffffff167fddf252ad1be2c89b69c2b068fc378daa952ba7f163c4a11628f55a4df523b3ef60405160405180910390a4505050565b6000612085610cbb565b156120c5576040517f08c379a00000000000000000000000000000000000000000000000000000000081526004016120bc90613c3f565b60405180910390fd5b60006040518060a00160405280888152602001878152602001868152602001858152602001428152509050600b600081548092919061210390614245565b9190505550600c8190806001815401808255809150506001900390600052602060002090600502016000909190919091506000820151816000015560208201518160010155604082015181600201556060820151816003015560808201518160040155505060006121836001600c805490506127fb90919063ffffffff16565b905061218f8482612811565b7f0b1e9a74eeaae184646d7a35062426460c8c9364005c6d441cce036dd9c655d584828a8a896040516121c6959493929190613a6f565b60405180910390a161220e6040518060400160405280601981526020017f546f6b656e204944202573206861732067656e65733a20257300000000000000815250828761282f565b809250505095945050505050565b612227848484611e1f565b612233848484846128ce565b612272576040517f08c379a000000000000000000000000000000000000000000000000000000000815260040161226990613b5f565b60405180910390fd5b50505050565b606060405180602001604052806000815250905090565b606060008214156122d7576040518060400160405280600181526020017f30000000000000000000000000000000000000000000000000000000000000008152509050612437565b600082905060005b600082146123095780806122f290614245565b915050600a82612302919061409e565b91506122df565b60008167ffffffffffffffff81111561234b577f4e487b7100000000000000000000000000000000000000000000000000000000600052604160045260246000fd5b6040519080825280601f01601f19166020018201604052801561237d5781602001600182028036833780820191505090505b5090505b60008514612430576001826123969190614129565b9150600a856123a59190614298565b60306123b19190614048565b60f81b8183815181106123ed577f4e487b7100000000000000000000000000000000000000000000000000000000600052603260045260246000fd5b60200101907effffffffffffffffffffffffffffffffffffffffffffffffffffffffffffff1916908160001a905350600a85612429919061409e565b9450612381565b8093505050505b919050565b6000612446612cde565b6000612450612a65565b90506000600790506000600190505b60408111612566576000818460ff1616146124cb576064876124819190614298565b60ff168483600881106124bd577f4e487b7100000000000000000000000000000000000000000000000000000000600052603260045260246000fd5b60200201818152505061251e565b6064866124d89190614298565b60ff16848360088110612514577f4e487b7100000000000000000000000000000000000000000000000000000000600052603260045260246000fd5b6020020181815250505b60648761252b919061409e565b965060648661253a919061409e565b95506125506001836127fb90919063ffffffff16565b915060028161255f91906140cf565b905061245f565b5060008260ff16600b54600c6000815481106125ab577f4e487b7100000000000000000000000000000000000000000000000000000000600052603260045260246000fd5b9060005260206000209060050201600301546040516020016125cf939291906139cb565b6040516020818303038152906040528051906020012060001c9050600a6059826125f99190614298565b6126039190614048565b90508084600060088110612640577f4e487b7100000000000000000000000000000000000000000000000000000000600052603260045260246000fd5b602002018181525050600080600090505b60088110156126d057858160088110612693577f4e487b7100000000000000000000000000000000000000000000000000000000600052603260045260246000fd5b6020020151826126a39190614048565b9150600781146126bd576064826126ba91906140cf565b91505b80806126c890614245565b915050612651565b50809550505050505092915050565b600080600c848154811061271c577f4e487b7100000000000000000000000000000000000000000000000000000000600052603260045260246000fd5b90600052602060002090600502016002015490506000600c848154811061276c577f4e487b7100000000000000000000000000000000000000000000000000000000600052603260045260246000fd5b906000526020600020906005020160020154905060006002600a83856127929190614048565b61279c91906140cf565b6127a6919061409e565b90506000600a826127b79190614298565b11156127cc576005816127ca9190614048565b505b60006001600a836127dd919061409e565b6127e79190614048565b90508094505050505092915050565b505050565b600081836128099190614129565b905092915050565b61282b828260405180602001604052806000815250612a79565b5050565b6128c983838360405160240161284793929190613b21565b6040516020818303038152906040527f969cdd03000000000000000000000000000000000000000000000000000000007bffffffffffffffffffffffffffffffffffffffffffffffffffffffff19166020820180517bffffffffffffffffffffffffffffffffffffffffffffffffffffffff8381831617835250505050612ad4565b505050565b60006128ef8473ffffffffffffffffffffffffffffffffffffffff16612afd565b15612a58578373ffffffffffffffffffffffffffffffffffffffff1663150b7a02612918611c80565b8786866040518563ffffffff1660e01b815260040161293a9493929190613a23565b602060405180830381600087803b15801561295457600080fd5b505af192505050801561298557506040513d601f19601f820116820180604052508101906129829190612fa2565b60015b612a08573d80600081146129b5576040519150601f19603f3d011682016040523d82523d6000602084013e6129ba565b606091505b50600081511415612a00576040517f08c379a00000000000000000000000000000000000000000000000000000000081526004016129f790613b5f565b60405180910390fd5b805181602001fd5b63150b7a0260e01b7bffffffffffffffffffffffffffffffffffffffffffffffffffffffff1916817bffffffffffffffffffffffffffffffffffffffffffffffffffffffff191614915050612a5d565b600190505b949350505050565b600060ff42612a749190614298565b905090565b612a838383612b10565b612a9060008484846128ce565b612acf576040517f08c379a0000000000000000000000000000000000000000000000000000000008152600401612ac690613b5f565b60405180910390fd5b505050565b60008151905060006a636f6e736f6c652e6c6f679050602083016000808483855afa5050505050565b600080823b905060008111915050919050565b600073ffffffffffffffffffffffffffffffffffffffff168273ffffffffffffffffffffffffffffffffffffffff161415612b80576040517f08c379a0000000000000000000000000000000000000000000000000000000008152600401612b7790613cdf565b60405180910390fd5b612b8981611c14565b15612bc9576040517f08c379a0000000000000000000000000000000000000000000000000000000008152600401612bc090613bbf565b60405180910390fd5b612bd5600083836127f6565b6001600360008473ffffffffffffffffffffffffffffffffffffffff1673ffffffffffffffffffffffffffffffffffffffff1681526020019081526020016000206000828254612c259190614048565b92505081905550816002600083815260200190815260200160002060006101000a81548173ffffffffffffffffffffffffffffffffffffffff021916908373ffffffffffffffffffffffffffffffffffffffff160217905550808273ffffffffffffffffffffffffffffffffffffffff16600073ffffffffffffffffffffffffffffffffffffffff167fddf252ad1be2c89b69c2b068fc378daa952ba7f163c4a11628f55a4df523b3ef60405160405180910390a45050565b604051806101000160405280600890602082028036833780820191505090505090565b6000612d14612d0f84613f9c565b613f6b565b905082815260208101848484011115612d2c57600080fd5b612d378482856141d1565b509392505050565b600081359050612d4e81614396565b92915050565b600081359050612d63816143ad565b92915050565b600081359050612d78816143c4565b92915050565b600081519050612d8d816143c4565b92915050565b600082601f830112612da457600080fd5b8135612db4848260208601612d01565b91505092915050565b600081359050612dcc816143db565b92915050565b600060208284031215612de457600080fd5b6000612df284828501612d3f565b91505092915050565b60008060408385031215612e0e57600080fd5b6000612e1c85828601612d3f565b9250506020612e2d85828601612d3f565b9150509250929050565b600080600060608486031215612e4c57600080fd5b6000612e5a86828701612d3f565b9350506020612e6b86828701612d3f565b9250506040612e7c86828701612dbd565b9150509250925092565b60008060008060808587031215612e9c57600080fd5b6000612eaa87828801612d3f565b9450506020612ebb87828801612d3f565b9350506040612ecc87828801612dbd565b925050606085013567ffffffffffffffff811115612ee957600080fd5b612ef587828801612d93565b91505092959194509250565b60008060408385031215612f1457600080fd5b6000612f2285828601612d3f565b9250506020612f3385828601612d54565b9150509250929050565b60008060408385031215612f5057600080fd5b6000612f5e85828601612d3f565b9250506020612f6f85828601612dbd565b9150509250929050565b600060208284031215612f8b57600080fd5b6000612f9984828501612d69565b91505092915050565b600060208284031215612fb457600080fd5b6000612fc284828501612d7e565b91505092915050565b600060208284031215612fdd57600080fd5b6000612feb84828501612dbd565b91505092915050565b6000806040838503121561300757600080fd5b600061301585828601612dbd565b925050602061302685828601612dbd565b9150509250929050565b600080600080600060a0868803121561304857600080fd5b600061305688828901612dbd565b955050602061306788828901612dbd565b945050604061307888828901612dbd565b935050606061308988828901612dbd565b925050608061309a88828901612d3f565b9150509295509295909350565b60006130b38383613972565b60208301905092915050565b6130c88161415d565b82525050565b60006130d982613fdc565b6130e3818561400a565b93506130ee83613fcc565b8060005b8381101561311f57815161310688826130a7565b975061311183613ffd565b9250506001810190506130f2565b5085935050505092915050565b6131358161416f565b82525050565b600061314682613fe7565b613150818561401b565b93506131608185602086016141e0565b61316981614385565b840191505092915050565b600061317f82613ff2565b613189818561402c565b93506131998185602086016141e0565b6131a281614385565b840191505092915050565b60006131b882613ff2565b6131c2818561403d565b93506131d28185602086016141e0565b80840191505092915050565b60006131eb60328361402c565b91507f4552433732313a207472616e7366657220746f206e6f6e20455243373231526560008301527f63656976657220696d706c656d656e74657200000000000000000000000000006020830152604082019050919050565b600061325160268361402c565b91507f4f776e61626c653a206e6577206f776e657220697320746865207a65726f206160008301527f64647265737300000000000000000000000000000000000000000000000000006020830152604082019050919050565b60006132b7601c8361402c565b91507f7472616e7366657220746f20746865207a65726f2061646472657373000000006000830152602082019050919050565b60006132f7601c8361402c565b91507f4552433732313a20746f6b656e20616c7265616479206d696e746564000000006000830152602082019050919050565b600061333760248361402c565b91507f4552433732313a207472616e7366657220746f20746865207a65726f2061646460008301527f72657373000000000000000000000000000000000000000000000000000000006020830152604082019050919050565b600061339d60198361402c565b91507f4552433732313a20617070726f766520746f2063616c6c6572000000000000006000830152602082019050919050565b60006133dd602c8361402c565b91507f4552433732313a206f70657261746f7220717565727920666f72206e6f6e657860008301527f697374656e7420746f6b656e00000000000000000000000000000000000000006020830152604082019050919050565b600061344360108361402c565b91507f5061757361626c653a20706175736564000000000000000000000000000000006000830152602082019050919050565b600061348360388361402c565b91507f4552433732313a20617070726f76652063616c6c6572206973206e6f74206f7760008301527f6e6572206e6f7220617070726f76656420666f7220616c6c00000000000000006020830152604082019050919050565b60006134e9602a8361402c565b91507f4552433732313a2062616c616e636520717565727920666f7220746865207a6560008301527f726f2061646472657373000000000000000000000000000000000000000000006020830152604082019050919050565b600061354f60298361402c565b91507f4552433732313a206f776e657220717565727920666f72206e6f6e657869737460008301527f656e7420746f6b656e00000000000000000000000000000000000000000000006020830152604082019050919050565b60006135b560118361402c565b91507f43616e2774207472616e7366657220746f0000000000000000000000000000006000830152602082019050919050565b60006135f560208361402c565b91507f4552433732313a206d696e7420746f20746865207a65726f20616464726573736000830152602082019050919050565b600061363560238361402c565b91507f6d757374206265206f776e6572206f6620626f746820706172656e7420746f6b60008301527f656e7300000000000000000000000000000000000000000000000000000000006020830152604082019050919050565b600061369b602c8361402c565b91507f4552433732313a20617070726f76656420717565727920666f72206e6f6e657860008301527f697374656e7420746f6b656e00000000000000000000000000000000000000006020830152604082019050919050565b600061370160208361402c565b91507f4f776e61626c653a2063616c6c6572206973206e6f7420746865206f776e65726000830152602082019050919050565b600061374160298361402c565b91507f4552433732313a207472616e73666572206f6620746f6b656e2074686174206960008301527f73206e6f74206f776e00000000000000000000000000000000000000000000006020830152604082019050919050565b60006137a7602f8361402c565b91507f4552433732314d657461646174613a2055524920717565727920666f72206e6f60008301527f6e6578697374656e7420746f6b656e00000000000000000000000000000000006020830152604082019050919050565b600061380d60218361402c565b91507f4552433732313a20617070726f76616c20746f2063757272656e74206f776e6560008301527f72000000000000000000000000000000000000000000000000000000000000006020830152604082019050919050565b600061387360318361402c565b91507f4552433732313a207472616e736665722063616c6c6572206973206e6f74206f60008301527f776e6572206e6f7220617070726f7665640000000000000000000000000000006020830152604082019050919050565b60006138d9601f8361402c565b91507f5265656e7472616e637947756172643a207265656e7472616e742063616c6c006000830152602082019050919050565b600061391960278361402c565b91507f4d6178696d756d20616d6f756e74206f662067656e2030206d6f6e6b6579732060008301527f72656163686564000000000000000000000000000000000000000000000000006020830152604082019050919050565b61397b816141c7565b82525050565b61398a816141c7565b82525050565b6139a161399c826141c7565b61428e565b82525050565b60006139b382856131ad565b91506139bf82846131ad565b91508190509392505050565b60006139d78286613990565b6020820191506139e78285613990565b6020820191506139f78284613990565b602082019150819050949350505050565b6000602082019050613a1d60008301846130bf565b92915050565b6000608082019050613a3860008301876130bf565b613a4560208301866130bf565b613a526040830185613981565b8181036060830152613a64818461313b565b905095945050505050565b600060a082019050613a8460008301886130bf565b613a916020830187613981565b613a9e6040830186613981565b613aab6060830185613981565b613ab86080830184613981565b9695505050505050565b60006020820190508181036000830152613adc81846130ce565b905092915050565b6000602082019050613af9600083018461312c565b92915050565b60006020820190508181036000830152613b198184613174565b905092915050565b60006060820190508181036000830152613b3b8186613174565b9050613b4a6020830185613981565b613b576040830184613981565b949350505050565b60006020820190508181036000830152613b78816131de565b9050919050565b60006020820190508181036000830152613b9881613244565b9050919050565b60006020820190508181036000830152613bb8816132aa565b9050919050565b60006020820190508181036000830152613bd8816132ea565b9050919050565b60006020820190508181036000830152613bf88161332a565b9050919050565b60006020820190508181036000830152613c1881613390565b9050919050565b60006020820190508181036000830152613c38816133d0565b9050919050565b60006020820190508181036000830152613c5881613436565b9050919050565b60006020820190508181036000830152613c7881613476565b9050919050565b60006020820190508181036000830152613c98816134dc565b9050919050565b60006020820190508181036000830152613cb881613542565b9050919050565b60006020820190508181036000830152613cd8816135a8565b9050919050565b60006020820190508181036000830152613cf8816135e8565b9050919050565b60006020820190508181036000830152613d1881613628565b9050919050565b60006020820190508181036000830152613d388161368e565b9050919050565b60006020820190508181036000830152613d58816136f4565b9050919050565b60006020820190508181036000830152613d7881613734565b9050919050565b60006020820190508181036000830152613d988161379a565b9050919050565b60006020820190508181036000830152613db881613800565b9050919050565b60006020820190508181036000830152613dd881613866565b9050919050565b60006020820190508181036000830152613df8816138cc565b9050919050565b60006020820190508181036000830152613e188161390c565b9050919050565b6000602082019050613e346000830184613981565b92915050565b600060a082019050613e4f6000830188613981565b613e5c6020830187613981565b613e696040830186613981565b613e766060830185613981565b613e836080830184613981565b9695505050505050565b600060e082019050613ea2600083018a613981565b613eaf6020830189613981565b613ebc6040830188613981565b613ec96060830187613981565b613ed66080830186613981565b613ee360a08301856130bf565b613ef060c08301846130bf565b98975050505050505050565b600060e082019050613f11600083018a613981565b613f1e6020830189613981565b613f2b6040830188613981565b613f386060830187613981565b613f456080830186613981565b613f5260a0830185613981565b613f5f60c08301846130bf565b98975050505050505050565b6000604051905081810181811067ffffffffffffffff82111715613f9257613f91614356565b5b8060405250919050565b600067ffffffffffffffff821115613fb757613fb6614356565b5b601f19601f8301169050602081019050919050565b6000819050602082019050919050565b600081519050919050565b600081519050919050565b600081519050919050565b6000602082019050919050565b600082825260208201905092915050565b600082825260208201905092915050565b600082825260208201905092915050565b600081905092915050565b6000614053826141c7565b915061405e836141c7565b9250827fffffffffffffffffffffffffffffffffffffffffffffffffffffffffffffffff03821115614093576140926142c9565b5b828201905092915050565b60006140a9826141c7565b91506140b4836141c7565b9250826140c4576140c36142f8565b5b828204905092915050565b60006140da826141c7565b91506140e5836141c7565b9250817fffffffffffffffffffffffffffffffffffffffffffffffffffffffffffffffff048311821515161561411e5761411d6142c9565b5b828202905092915050565b6000614134826141c7565b915061413f836141c7565b925082821015614152576141516142c9565b5b828203905092915050565b6000614168826141a7565b9050919050565b60008115159050919050565b60007fffffffff0000000000000000000000000000000000000000000000000000000082169050919050565b600073ffffffffffffffffffffffffffffffffffffffff82169050919050565b6000819050919050565b82818337600083830152505050565b60005b838110156141fe5780820151818401526020810190506141e3565b8381111561420d576000848401525b50505050565b6000600282049050600182168061422b57607f821691505b6020821081141561423f5761423e614327565b5b50919050565b6000614250826141c7565b91507fffffffffffffffffffffffffffffffffffffffffffffffffffffffffffffffff821415614283576142826142c9565b5b600182019050919050565b6000819050919050565b60006142a3826141c7565b91506142ae836141c7565b9250826142be576142bd6142f8565b5b828206905092915050565b7f4e487b7100000000000000000000000000000000000000000000000000000000600052601160045260246000fd5b7f4e487b7100000000000000000000000000000000000000000000000000000000600052601260045260246000fd5b7f4e487b7100000000000000000000000000000000000000000000000000000000600052602260045260246000fd5b7f4e487b7100000000000000000000000000000000000000000000000000000000600052604160045260246000fd5b6000601f19601f8301169050919050565b61439f8161415d565b81146143aa57600080fd5b50565b6143b68161416f565b81146143c157600080fd5b50565b6143cd8161417b565b81146143d857600080fd5b50565b6143e4816141c7565b81146143ef57600080fd5b5056fea26469706673582212200840aacd32f2e4a9662fee35678f861a19af825070fbc8840424f8c41f735f7d64736f6c63430008000033",
  "linkReferences": {},
  "deployedLinkReferences": {}
}