{
  "_format": "hh-sol-artifact-1",
  "contractName": "MonkeyContract",
  "sourceName": "contracts/MonkeyContract.sol",
  "abi": [
    {
      "inputs": [],
      "stateMutability": "nonpayable",
      "type": "constructor"
    },
    {
      "anonymous": false,
      "inputs": [
        {
          "indexed": true,
          "internalType": "address",
          "name": "owner",
          "type": "address"
        },
        {
          "indexed": true,
          "internalType": "address",
          "name": "approved",
          "type": "address"
        },
        {
          "indexed": true,
          "internalType": "uint256",
          "name": "tokenId",
          "type": "uint256"
        }
      ],
      "name": "Approval",
      "type": "event"
    },
    {
      "anonymous": false,
      "inputs": [
        {
          "indexed": true,
          "internalType": "address",
          "name": "owner",
          "type": "address"
        },
        {
          "indexed": true,
          "internalType": "address",
          "name": "operator",
          "type": "address"
        },
        {
          "indexed": false,
          "internalType": "bool",
          "name": "approved",
          "type": "bool"
        }
      ],
      "name": "ApprovalForAll",
      "type": "event"
    },
    {
      "anonymous": false,
      "inputs": [
        {
          "indexed": false,
          "internalType": "uint256",
          "name": "tokenId",
          "type": "uint256"
        },
        {
          "indexed": false,
          "internalType": "uint256",
          "name": "genes",
          "type": "uint256"
        },
        {
          "indexed": false,
          "internalType": "uint256",
          "name": "birthtime",
          "type": "uint256"
        },
        {
          "indexed": false,
          "internalType": "uint256",
          "name": "parent1Id",
          "type": "uint256"
        },
        {
          "indexed": false,
          "internalType": "uint256",
          "name": "parent2Id",
          "type": "uint256"
        },
        {
          "indexed": false,
          "internalType": "uint256",
          "name": "generation",
          "type": "uint256"
        },
        {
          "indexed": false,
          "internalType": "address",
          "name": "owner",
          "type": "address"
        }
      ],
      "name": "BreedingSuccessful",
      "type": "event"
    },
    {
      "anonymous": false,
      "inputs": [
        {
          "indexed": false,
          "internalType": "address",
          "name": "owner",
          "type": "address"
        },
        {
          "indexed": false,
          "internalType": "uint256",
          "name": "tokenId",
          "type": "uint256"
        },
        {
          "indexed": false,
          "internalType": "uint256",
          "name": "parent1Id",
          "type": "uint256"
        },
        {
          "indexed": false,
          "internalType": "uint256",
          "name": "parent2Id",
          "type": "uint256"
        },
        {
          "indexed": false,
          "internalType": "uint256",
          "name": "genes",
          "type": "uint256"
        }
      ],
      "name": "MonkeyCreated",
      "type": "event"
    },
    {
      "anonymous": false,
      "inputs": [
        {
          "indexed": true,
          "internalType": "address",
          "name": "previousOwner",
          "type": "address"
        },
        {
          "indexed": true,
          "internalType": "address",
          "name": "newOwner",
          "type": "address"
        }
      ],
      "name": "OwnershipTransferred",
      "type": "event"
    },
    {
      "anonymous": false,
      "inputs": [
        {
          "indexed": false,
          "internalType": "address",
          "name": "account",
          "type": "address"
        }
      ],
      "name": "Paused",
      "type": "event"
    },
    {
      "anonymous": false,
      "inputs": [
        {
          "indexed": true,
          "internalType": "address",
          "name": "from",
          "type": "address"
        },
        {
          "indexed": true,
          "internalType": "address",
          "name": "to",
          "type": "address"
        },
        {
          "indexed": true,
          "internalType": "uint256",
          "name": "tokenId",
          "type": "uint256"
        }
      ],
      "name": "Transfer",
      "type": "event"
    },
    {
      "anonymous": false,
      "inputs": [
        {
          "indexed": false,
          "internalType": "address",
          "name": "account",
          "type": "address"
        }
      ],
      "name": "Unpaused",
      "type": "event"
    },
    {
      "inputs": [],
      "name": "GEN0_Limit",
      "outputs": [
        {
          "internalType": "uint256",
          "name": "",
          "type": "uint256"
        }
      ],
      "stateMutability": "view",
      "type": "function"
    },
    {
      "inputs": [
        {
          "internalType": "uint256",
          "name": "",
          "type": "uint256"
        }
      ],
      "name": "allMonkeysArray",
      "outputs": [
        {
          "internalType": "uint256",
          "name": "parent1Id",
          "type": "uint256"
        },
        {
          "internalType": "uint256",
          "name": "parent2Id",
          "type": "uint256"
        },
        {
          "internalType": "uint256",
          "name": "generation",
          "type": "uint256"
        },
        {
          "internalType": "uint256",
          "name": "genes",
          "type": "uint256"
        },
        {
          "internalType": "uint256",
          "name": "birthtime",
          "type": "uint256"
        }
      ],
      "stateMutability": "view",
      "type": "function"
    },
    {
      "inputs": [
        {
          "internalType": "address",
          "name": "to",
          "type": "address"
        },
        {
          "internalType": "uint256",
          "name": "tokenId",
          "type": "uint256"
        }
      ],
      "name": "approve",
      "outputs": [],
      "stateMutability": "nonpayable",
      "type": "function"
    },
    {
      "inputs": [
        {
          "internalType": "address",
          "name": "owner",
          "type": "address"
        }
      ],
      "name": "balanceOf",
      "outputs": [
        {
          "internalType": "uint256",
          "name": "",
          "type": "uint256"
        }
      ],
      "stateMutability": "view",
      "type": "function"
    },
    {
      "inputs": [
        {
          "internalType": "uint256",
          "name": "_parent1Id",
          "type": "uint256"
        },
        {
          "internalType": "uint256",
          "name": "_parent2Id",
          "type": "uint256"
        }
      ],
      "name": "breed",
      "outputs": [
        {
          "internalType": "uint256",
          "name": "",
          "type": "uint256"
        }
      ],
      "stateMutability": "nonpayable",
      "type": "function"
    },
    {
      "inputs": [
        {
          "internalType": "uint256",
          "name": "_genes",
          "type": "uint256"
        }
      ],
      "name": "createGen0Monkey",
      "outputs": [],
      "stateMutability": "nonpayable",
      "type": "function"
    },
    {
      "inputs": [
        {
          "internalType": "uint256",
          "name": "_parent1Id",
          "type": "uint256"
        },
        {
          "internalType": "uint256",
          "name": "_parent2Id",
          "type": "uint256"
        },
        {
          "internalType": "uint256",
          "name": "_generation",
          "type": "uint256"
        },
        {
          "internalType": "uint256",
          "name": "_genes",
          "type": "uint256"
        },
        {
          "internalType": "address",
          "name": "_owner",
          "type": "address"
        }
      ],
      "name": "createMonkey",
      "outputs": [
        {
          "internalType": "uint256",
          "name": "",
          "type": "uint256"
        }
      ],
      "stateMutability": "nonpayable",
      "type": "function"
    },
    {
      "inputs": [
        {
          "internalType": "address",
          "name": "owner",
          "type": "address"
        }
      ],
      "name": "findMonkeyIdsOfAddress",
      "outputs": [
        {
          "internalType": "uint256[]",
          "name": "",
          "type": "uint256[]"
        }
      ],
      "stateMutability": "view",
      "type": "function"
    },
    {
      "inputs": [],
      "name": "gen0amountTotal",
      "outputs": [
        {
          "internalType": "uint256",
          "name": "",
          "type": "uint256"
        }
      ],
      "stateMutability": "view",
      "type": "function"
    },
    {
      "inputs": [
        {
          "internalType": "uint256",
          "name": "tokenId",
          "type": "uint256"
        }
      ],
      "name": "getApproved",
      "outputs": [
        {
          "internalType": "address",
          "name": "",
          "type": "address"
        }
      ],
      "stateMutability": "view",
      "type": "function"
    },
    {
      "inputs": [],
      "name": "getMonkeyContractAddress",
      "outputs": [
        {
          "internalType": "address",
          "name": "",
          "type": "address"
        }
      ],
      "stateMutability": "view",
      "type": "function"
    },
    {
      "inputs": [
        {
          "internalType": "uint256",
          "name": "tokenId",
          "type": "uint256"
        }
      ],
      "name": "getMonkeyDetails",
      "outputs": [
        {
          "internalType": "uint256",
          "name": "genes",
          "type": "uint256"
        },
        {
          "internalType": "uint256",
          "name": "birthtime",
          "type": "uint256"
        },
        {
          "internalType": "uint256",
          "name": "parent1Id",
          "type": "uint256"
        },
        {
          "internalType": "uint256",
          "name": "parent2Id",
          "type": "uint256"
        },
        {
          "internalType": "uint256",
          "name": "generation",
          "type": "uint256"
        },
        {
          "internalType": "address",
          "name": "owner",
          "type": "address"
        },
        {
          "internalType": "address",
          "name": "approvedAddress",
          "type": "address"
        }
      ],
      "stateMutability": "view",
      "type": "function"
    },
    {
      "inputs": [
        {
          "internalType": "address",
          "name": "owner",
          "type": "address"
        },
        {
          "internalType": "address",
          "name": "operator",
          "type": "address"
        }
      ],
      "name": "isApprovedForAll",
      "outputs": [
        {
          "internalType": "bool",
          "name": "",
          "type": "bool"
        }
      ],
      "stateMutability": "view",
      "type": "function"
    },
    {
      "inputs": [],
      "name": "name",
      "outputs": [
        {
          "internalType": "string",
          "name": "",
          "type": "string"
        }
      ],
      "stateMutability": "view",
      "type": "function"
    },
    {
      "inputs": [],
      "name": "owner",
      "outputs": [
        {
          "internalType": "address",
          "name": "",
          "type": "address"
        }
      ],
      "stateMutability": "view",
      "type": "function"
    },
    {
      "inputs": [
        {
          "internalType": "uint256",
          "name": "tokenId",
          "type": "uint256"
        }
      ],
      "name": "ownerOf",
      "outputs": [
        {
          "internalType": "address",
          "name": "",
          "type": "address"
        }
      ],
      "stateMutability": "view",
      "type": "function"
    },
    {
      "inputs": [],
      "name": "paused",
      "outputs": [
        {
          "internalType": "bool",
          "name": "",
          "type": "bool"
        }
      ],
      "stateMutability": "view",
      "type": "function"
    },
    {
      "inputs": [],
      "name": "renounceOwnership",
      "outputs": [],
      "stateMutability": "nonpayable",
      "type": "function"
    },
    {
      "inputs": [
        {
          "internalType": "address",
          "name": "from",
          "type": "address"
        },
        {
          "internalType": "address",
          "name": "to",
          "type": "address"
        },
        {
          "internalType": "uint256",
          "name": "tokenId",
          "type": "uint256"
        }
      ],
      "name": "safeTransferFrom",
      "outputs": [],
      "stateMutability": "nonpayable",
      "type": "function"
    },
    {
      "inputs": [
        {
          "internalType": "address",
          "name": "from",
          "type": "address"
        },
        {
          "internalType": "address",
          "name": "to",
          "type": "address"
        },
        {
          "internalType": "uint256",
          "name": "tokenId",
          "type": "uint256"
        },
        {
          "internalType": "bytes",
          "name": "_data",
          "type": "bytes"
        }
      ],
      "name": "safeTransferFrom",
      "outputs": [],
      "stateMutability": "nonpayable",
      "type": "function"
    },
    {
      "inputs": [
        {
          "internalType": "address",
          "name": "operator",
          "type": "address"
        },
        {
          "internalType": "bool",
          "name": "approved",
          "type": "bool"
        }
      ],
      "name": "setApprovalForAll",
      "outputs": [],
      "stateMutability": "nonpayable",
      "type": "function"
    },
    {
      "inputs": [],
      "name": "showTotalSupply",
      "outputs": [
        {
          "internalType": "uint256",
          "name": "",
          "type": "uint256"
        }
      ],
      "stateMutability": "view",
      "type": "function"
    },
    {
      "inputs": [
        {
          "internalType": "bytes4",
          "name": "interfaceId",
          "type": "bytes4"
        }
      ],
      "name": "supportsInterface",
      "outputs": [
        {
          "internalType": "bool",
          "name": "",
          "type": "bool"
        }
      ],
      "stateMutability": "view",
      "type": "function"
    },
    {
      "inputs": [],
      "name": "symbol",
      "outputs": [
        {
          "internalType": "string",
          "name": "",
          "type": "string"
        }
      ],
      "stateMutability": "view",
      "type": "function"
    },
    {
      "inputs": [
        {
          "internalType": "uint256",
          "name": "tokenId",
          "type": "uint256"
        }
      ],
      "name": "tokenURI",
      "outputs": [
        {
          "internalType": "string",
          "name": "",
          "type": "string"
        }
      ],
      "stateMutability": "view",
      "type": "function"
    },
    {
      "inputs": [],
      "name": "totalSupply",
      "outputs": [
        {
          "internalType": "uint256",
          "name": "",
          "type": "uint256"
        }
      ],
      "stateMutability": "view",
      "type": "function"
    },
    {
      "inputs": [
        {
          "internalType": "address",
          "name": "_from",
          "type": "address"
        },
        {
          "internalType": "address",
          "name": "_to",
          "type": "address"
        },
        {
          "internalType": "uint256",
          "name": "_tokenId",
          "type": "uint256"
        }
      ],
      "name": "transfer",
      "outputs": [],
      "stateMutability": "nonpayable",
      "type": "function"
    },
    {
      "inputs": [
        {
          "internalType": "address",
          "name": "from",
          "type": "address"
        },
        {
          "internalType": "address",
          "name": "to",
          "type": "address"
        },
        {
          "internalType": "uint256",
          "name": "tokenId",
          "type": "uint256"
        }
      ],
      "name": "transferFrom",
      "outputs": [],
      "stateMutability": "nonpayable",
      "type": "function"
    },
    {
      "inputs": [
        {
          "internalType": "address",
          "name": "newOwner",
          "type": "address"
        }
      ],
      "name": "transferOwnership",
      "outputs": [],
      "stateMutability": "nonpayable",
      "type": "function"
    }
  ],
  "bytecode": "0x6080604052600c6009553480156200001657600080fd5b506040518060400160405280600e81526020017f43727970746f204d6f6e6b6579730000000000000000000000000000000000008152506040518060400160405280600681526020017f4d4f4e4b4559000000000000000000000000000000000000000000000000000081525081600090805190602001906200009b929190620001da565b508060019080519060200190620000b4929190620001da565b5050506000620000c9620001d260201b60201c565b905080600660006101000a81548173ffffffffffffffffffffffffffffffffffffffff021916908373ffffffffffffffffffffffffffffffffffffffff1602179055508073ffffffffffffffffffffffffffffffffffffffff16600073ffffffffffffffffffffffffffffffffffffffff167f8be0079c531659141344cd1fd0a4f28419497f9722a3daafe3b4186f6b6457e060405160405180910390a35060016007819055506000600860006101000a81548160ff02191690831515021790555030600860016101000a81548173ffffffffffffffffffffffffffffffffffffffff021916908373ffffffffffffffffffffffffffffffffffffffff160217905550620002ef565b600033905090565b828054620001e8906200028a565b90600052602060002090601f0160209004810192826200020c576000855562000258565b82601f106200022757805160ff191683800117855562000258565b8280016001018555821562000258579182015b82811115620002575782518255916020019190600101906200023a565b5b5090506200026791906200026b565b5090565b5b80821115620002865760008160009055506001016200026c565b5090565b60006002820490506001821680620002a357607f821691505b60208210811415620002ba57620002b9620002c0565b5b50919050565b7f4e487b7100000000000000000000000000000000000000000000000000000000600052602260045260246000fd5b6146e480620002ff6000396000f3fe608060405234801561001057600080fd5b50600436106101cf5760003560e01c8063715018a611610104578063beabacc8116100a2578063e985e9c511610071578063e985e9c514610560578063ef742fc114610590578063f2fde38b146105ac578063f91ba674146105c8576101cf565b8063beabacc8146104c6578063c87b56dd146104e2578063d9ecad7b14610512578063daa97fae14610542576101cf565b806395d89b41116100de57806395d89b4114610452578063a0b7cb0714610470578063a22cb4651461048e578063b88d4fde146104aa576101cf565b8063715018a6146103fa5780638da5cb5b1461040457806390ba348514610422576101cf565b80631b4172781161017157806342842e0e1161014b57806342842e0e146103605780635c975abb1461037c5780636352211e1461039a57806370a08231146103ca576101cf565b80631b417278146102da57806323b872dd1461030e5780632558e25f1461032a576101cf565b80630917cffe116101ad5780630917cffe14610252578063095ea7b31461027057806318160ddd1461028c5780631b0a1aed146102aa576101cf565b806301ffc9a7146101d457806306fdde0314610204578063081812fc14610222575b600080fd5b6101ee60048036038101906101e9919061317a565b6105e6565b6040516101fb9190613c91565b60405180910390f35b61020c6106c8565b6040516102199190613cac565b60405180910390f35b61023c600480360381019061023791906131cc565b61075a565b6040516102499190613bb5565b60405180910390f35b61025a6107df565b6040516102679190614048565b60405180910390f35b61028a6004803603810190610285919061313e565b6107e5565b005b6102946108fd565b6040516102a19190614048565b60405180910390f35b6102c460048036038101906102bf9190612fd3565b610903565b6040516102d19190613c6f565b60405180910390f35b6102f460048036038101906102ef91906131cc565b610a43565b604051610305959493929190614063565b60405180910390f35b61032860048036038101906103239190613038565b610a89565b005b610344600480360381019061033f91906131cc565b610ae9565b60405161035797969594939291906140b6565b60405180910390f35b61037a60048036038101906103759190613038565b610c9b565b005b610384610cbb565b6040516103919190613c91565b60405180910390f35b6103b460048036038101906103af91906131cc565b610cd2565b6040516103c19190613bb5565b60405180910390f35b6103e460048036038101906103df9190612fd3565b610d84565b6040516103f19190614048565b60405180910390f35b610402610e3c565b005b61040c610f79565b6040516104199190613bb5565b60405180910390f35b61043c60048036038101906104379190613231565b610fa3565b6040516104499190614048565b60405180910390f35b61045a610fc2565b6040516104679190613cac565b60405180910390f35b610478611054565b6040516104859190614048565b60405180910390f35b6104a860048036038101906104a39190613102565b61105e565b005b6104c460048036038101906104bf9190613087565b6111df565b005b6104e060048036038101906104db9190613038565b611241565b005b6104fc60048036038101906104f791906131cc565b6113ef565b6040516105099190613cac565b60405180910390f35b61052c600480360381019061052791906131f5565b611496565b6040516105399190614048565b60405180910390f35b61054a611846565b6040516105579190613bb5565b60405180910390f35b61057a60048036038101906105759190612ffc565b611870565b6040516105879190613c91565b60405180910390f35b6105aa60048036038101906105a591906131cc565b611904565b005b6105c660048036038101906105c19190612fd3565b6119f8565b005b6105d0611ba4565b6040516105dd9190614048565b60405180910390f35b60007f80ac58cd000000000000000000000000000000000000000000000000000000007bffffffffffffffffffffffffffffffffffffffffffffffffffffffff1916827bffffffffffffffffffffffffffffffffffffffffffffffffffffffff191614806106b157507f5b5e139f000000000000000000000000000000000000000000000000000000007bffffffffffffffffffffffffffffffffffffffffffffffffffffffff1916827bffffffffffffffffffffffffffffffffffffffffffffffffffffffff1916145b806106c157506106c082611baa565b5b9050919050565b6060600080546106d79061443c565b80601f01602080910402602001604051908101604052809291908181526020018280546107039061443c565b80156107505780601f1061072557610100808354040283529160200191610750565b820191906000526020600020905b81548152906001019060200180831161073357829003601f168201915b5050505050905090565b600061076582611c14565b6107a4576040517f08c379a000000000000000000000000000000000000000000000000000000000815260040161079b90613f48565b60405180910390fd5b6004600083815260200190815260200160002060009054906101000a900473ffffffffffffffffffffffffffffffffffffffff169050919050565b600a5481565b60006107f082610cd2565b90508073ffffffffffffffffffffffffffffffffffffffff168373ffffffffffffffffffffffffffffffffffffffff161415610861576040517f08c379a000000000000000000000000000000000000000000000000000000000815260040161085890613fc8565b60405180910390fd5b8073ffffffffffffffffffffffffffffffffffffffff16610880611c80565b73ffffffffffffffffffffffffffffffffffffffff1614806108af57506108ae816108a9611c80565b611870565b5b6108ee576040517f08c379a00000000000000000000000000000000000000000000000000000000081526004016108e590613e88565b60405180910390fd5b6108f88383611c88565b505050565b600b5481565b6060600061091083610d84565b90506000808267ffffffffffffffff811115610955577f4e487b7100000000000000000000000000000000000000000000000000000000600052604160045260246000fd5b6040519080825280602002602001820160405280156109835781602001602082028036833780820191505090505b50905060005b600b54811015610a37578573ffffffffffffffffffffffffffffffffffffffff166109b382610cd2565b73ffffffffffffffffffffffffffffffffffffffff161415610a245780828481518110610a09577f4e487b7100000000000000000000000000000000000000000000000000000000600052603260045260246000fd5b6020026020010181815250508280610a209061446e565b9350505b8080610a2f9061446e565b915050610989565b50809350505050919050565b600c8181548110610a5357600080fd5b90600052602060002090600502016000915090508060000154908060010154908060020154908060030154908060040154905085565b610a9a610a94611c80565b82611d41565b610ad9576040517f08c379a0000000000000000000000000000000000000000000000000000000008152600401610ad090613fe8565b60405180910390fd5b610ae4838383611e1f565b505050565b6000806000806000806000600c8881548110610b2e577f4e487b7100000000000000000000000000000000000000000000000000000000600052603260045260246000fd5b906000526020600020906005020160030154600c8981548110610b7a577f4e487b7100000000000000000000000000000000000000000000000000000000600052603260045260246000fd5b906000526020600020906005020160040154600c8a81548110610bc6577f4e487b7100000000000000000000000000000000000000000000000000000000600052603260045260246000fd5b906000526020600020906005020160000154600c8b81548110610c12577f4e487b7100000000000000000000000000000000000000000000000000000000600052603260045260246000fd5b906000526020600020906005020160010154600c8c81548110610c5e577f4e487b7100000000000000000000000000000000000000000000000000000000600052603260045260246000fd5b906000526020600020906005020160020154610c798d610cd2565b610c828e61075a565b9650965096509650965096509650919395979092949650565b610cb6838383604051806020016040528060008152506111df565b505050565b6000600860009054906101000a900460ff16905090565b6000806002600084815260200190815260200160002060009054906101000a900473ffffffffffffffffffffffffffffffffffffffff169050600073ffffffffffffffffffffffffffffffffffffffff168173ffffffffffffffffffffffffffffffffffffffff161415610d7b576040517f08c379a0000000000000000000000000000000000000000000000000000000008152600401610d7290613ec8565b60405180910390fd5b80915050919050565b60008073ffffffffffffffffffffffffffffffffffffffff168273ffffffffffffffffffffffffffffffffffffffff161415610df5576040517f08c379a0000000000000000000000000000000000000000000000000000000008152600401610dec90613ea8565b60405180910390fd5b600360008373ffffffffffffffffffffffffffffffffffffffff1673ffffffffffffffffffffffffffffffffffffffff168152602001908152602001600020549050919050565b610e44611c80565b73ffffffffffffffffffffffffffffffffffffffff16610e62610f79565b73ffffffffffffffffffffffffffffffffffffffff1614610eb8576040517f08c379a0000000000000000000000000000000000000000000000000000000008152600401610eaf90613f68565b60405180910390fd5b600073ffffffffffffffffffffffffffffffffffffffff16600660009054906101000a900473ffffffffffffffffffffffffffffffffffffffff1673ffffffffffffffffffffffffffffffffffffffff167f8be0079c531659141344cd1fd0a4f28419497f9722a3daafe3b4186f6b6457e060405160405180910390a36000600660006101000a81548173ffffffffffffffffffffffffffffffffffffffff021916908373ffffffffffffffffffffffffffffffffffffffff160217905550565b6000600660009054906101000a900473ffffffffffffffffffffffffffffffffffffffff16905090565b600080610fb3878787878761207b565b90508091505095945050505050565b606060018054610fd19061443c565b80601f0160208091040260200160405190810160405280929190818152602001828054610ffd9061443c565b801561104a5780601f1061101f5761010080835404028352916020019161104a565b820191906000526020600020905b81548152906001019060200180831161102d57829003601f168201915b5050505050905090565b6000600b54905090565b611066611c80565b73ffffffffffffffffffffffffffffffffffffffff168273ffffffffffffffffffffffffffffffffffffffff1614156110d4576040517f08c379a00000000000000000000000000000000000000000000000000000000081526004016110cb90613e28565b60405180910390fd5b80600560006110e1611c80565b73ffffffffffffffffffffffffffffffffffffffff1673ffffffffffffffffffffffffffffffffffffffff16815260200190815260200160002060008473ffffffffffffffffffffffffffffffffffffffff1673ffffffffffffffffffffffffffffffffffffffff16815260200190815260200160002060006101000a81548160ff0219169083151502179055508173ffffffffffffffffffffffffffffffffffffffff1661118e611c80565b73ffffffffffffffffffffffffffffffffffffffff167f17307eab39ab6107e8899845ad3d59bd9653f200f220920489ca2b5937696c31836040516111d39190613c91565b60405180910390a35050565b6111f06111ea611c80565b83611d41565b61122f576040517f08c379a000000000000000000000000000000000000000000000000000000000815260040161122690613fe8565b60405180910390fd5b61123b8484848461221c565b50505050565b60026007541415611287576040517f08c379a000000000000000000000000000000000000000000000000000000000815260040161127e90614008565b60405180910390fd5b6002600781905550611297610cbb565b156112d7576040517f08c379a00000000000000000000000000000000000000000000000000000000081526004016112ce90613e68565b60405180910390fd5b600073ffffffffffffffffffffffffffffffffffffffff168273ffffffffffffffffffffffffffffffffffffffff161415611347576040517f08c379a000000000000000000000000000000000000000000000000000000000815260040161133e90613dc8565b60405180910390fd5b3073ffffffffffffffffffffffffffffffffffffffff168273ffffffffffffffffffffffffffffffffffffffff1614156113b6576040517f08c379a00000000000000000000000000000000000000000000000000000000081526004016113ad90613ee8565b60405180910390fd5b600115156113cb6113c5611c80565b83611d41565b1515146113d757600080fd5b6113e2838383610c9b565b6001600781905550505050565b60606113fa82611c14565b611439576040517f08c379a000000000000000000000000000000000000000000000000000000000815260040161143090613fa8565b60405180910390fd5b6000611443612278565b90506000815111611463576040518060200160405280600081525061148e565b8061146d8461228f565b60405160200161147e929190613b91565b6040516020818303038152906040525b915050919050565b60006114a0610cbb565b156114e0576040517f08c379a00000000000000000000000000000000000000000000000000000000081526004016114d790613e68565b60405180910390fd5b6114e8611c80565b73ffffffffffffffffffffffffffffffffffffffff1661150784610cd2565b73ffffffffffffffffffffffffffffffffffffffff16148015611564575061152d611c80565b73ffffffffffffffffffffffffffffffffffffffff1661154c83610cd2565b73ffffffffffffffffffffffffffffffffffffffff16145b6115a3576040517f08c379a000000000000000000000000000000000000000000000000000000000815260040161159a90613f28565b60405180910390fd5b6000600c84815481106115df577f4e487b7100000000000000000000000000000000000000000000000000000000600052603260045260246000fd5b90600052602060002090600502016003015490506000600c848154811061162f577f4e487b7100000000000000000000000000000000000000000000000000000000600052603260045260246000fd5b9060005260206000209060050201600301549050600061164f838361243c565b9050600061165d87876127a2565b9050600061167588888486611670611c80565b61207b565b90507f8e3541d6cb6a06d3a1785ca3c18fa6ca7b39a6278433734c442e2ebfe623e2ea81600c83815481106116d3577f4e487b7100000000000000000000000000000000000000000000000000000000600052603260045260246000fd5b906000526020600020906005020160030154600c848154811061171f577f4e487b7100000000000000000000000000000000000000000000000000000000600052603260045260246000fd5b906000526020600020906005020160040154600c858154811061176b577f4e487b7100000000000000000000000000000000000000000000000000000000600052603260045260246000fd5b906000526020600020906005020160000154600c86815481106117b7577f4e487b7100000000000000000000000000000000000000000000000000000000600052603260045260246000fd5b906000526020600020906005020160010154600c8781548110611803577f4e487b7100000000000000000000000000000000000000000000000000000000600052603260045260246000fd5b90600052602060002090600502016002015461181d611c80565b6040516118309796959493929190614125565b60405180910390a1809550505050505092915050565b6000600860019054906101000a900473ffffffffffffffffffffffffffffffffffffffff16905090565b6000600560008473ffffffffffffffffffffffffffffffffffffffff1673ffffffffffffffffffffffffffffffffffffffff16815260200190815260200160002060008373ffffffffffffffffffffffffffffffffffffffff1673ffffffffffffffffffffffffffffffffffffffff16815260200190815260200160002060009054906101000a900460ff16905092915050565b61190c611c80565b73ffffffffffffffffffffffffffffffffffffffff1661192a610f79565b73ffffffffffffffffffffffffffffffffffffffff1614611980576040517f08c379a000000000000000000000000000000000000000000000000000000000815260040161197790613f68565b60405180910390fd5b600954600a54106119c6576040517f08c379a00000000000000000000000000000000000000000000000000000000081526004016119bd90614028565b60405180910390fd5b600a60008154809291906119d99061446e565b91905055506119f46000806000846119ef611c80565b61207b565b5050565b611a00611c80565b73ffffffffffffffffffffffffffffffffffffffff16611a1e610f79565b73ffffffffffffffffffffffffffffffffffffffff1614611a74576040517f08c379a0000000000000000000000000000000000000000000000000000000008152600401611a6b90613f68565b60405180910390fd5b600073ffffffffffffffffffffffffffffffffffffffff168173ffffffffffffffffffffffffffffffffffffffff161415611ae4576040517f08c379a0000000000000000000000000000000000000000000000000000000008152600401611adb90613da8565b60405180910390fd5b8073ffffffffffffffffffffffffffffffffffffffff16600660009054906101000a900473ffffffffffffffffffffffffffffffffffffffff1673ffffffffffffffffffffffffffffffffffffffff167f8be0079c531659141344cd1fd0a4f28419497f9722a3daafe3b4186f6b6457e060405160405180910390a380600660006101000a81548173ffffffffffffffffffffffffffffffffffffffff021916908373ffffffffffffffffffffffffffffffffffffffff16021790555050565b60095481565b60007f01ffc9a7000000000000000000000000000000000000000000000000000000007bffffffffffffffffffffffffffffffffffffffffffffffffffffffff1916827bffffffffffffffffffffffffffffffffffffffffffffffffffffffff1916149050919050565b60008073ffffffffffffffffffffffffffffffffffffffff166002600084815260200190815260200160002060009054906101000a900473ffffffffffffffffffffffffffffffffffffffff1673ffffffffffffffffffffffffffffffffffffffff1614159050919050565b600033905090565b816004600083815260200190815260200160002060006101000a81548173ffffffffffffffffffffffffffffffffffffffff021916908373ffffffffffffffffffffffffffffffffffffffff160217905550808273ffffffffffffffffffffffffffffffffffffffff16611cfb83610cd2565b73ffffffffffffffffffffffffffffffffffffffff167f8c5be1e5ebec7d5bd14f71427d1e84f3dd0314c0f7b2291e5b200ac8c7c3b92560405160405180910390a45050565b6000611d4c82611c14565b611d8b576040517f08c379a0000000000000000000000000000000000000000000000000000000008152600401611d8290613e48565b60405180910390fd5b6000611d9683610cd2565b90508073ffffffffffffffffffffffffffffffffffffffff168473ffffffffffffffffffffffffffffffffffffffff161480611e0557508373ffffffffffffffffffffffffffffffffffffffff16611ded8461075a565b73ffffffffffffffffffffffffffffffffffffffff16145b80611e165750611e158185611870565b5b91505092915050565b8273ffffffffffffffffffffffffffffffffffffffff16611e3f82610cd2565b73ffffffffffffffffffffffffffffffffffffffff1614611e95576040517f08c379a0000000000000000000000000000000000000000000000000000000008152600401611e8c90613f88565b60405180910390fd5b600073ffffffffffffffffffffffffffffffffffffffff168273ffffffffffffffffffffffffffffffffffffffff161415611f05576040517f08c379a0000000000000000000000000000000000000000000000000000000008152600401611efc90613e08565b60405180910390fd5b611f108383836128b9565b611f1b600082611c88565b6001600360008573ffffffffffffffffffffffffffffffffffffffff1673ffffffffffffffffffffffffffffffffffffffff1681526020019081526020016000206000828254611f6b9190614352565b925050819055506001600360008473ffffffffffffffffffffffffffffffffffffffff1673ffffffffffffffffffffffffffffffffffffffff1681526020019081526020016000206000828254611fc29190614271565b92505081905550816002600083815260200190815260200160002060006101000a81548173ffffffffffffffffffffffffffffffffffffffff021916908373ffffffffffffffffffffffffffffffffffffffff160217905550808273ffffffffffffffffffffffffffffffffffffffff168473ffffffffffffffffffffffffffffffffffffffff167fddf252ad1be2c89b69c2b068fc378daa952ba7f163c4a11628f55a4df523b3ef60405160405180910390a4505050565b6000612085610cbb565b156120c5576040517f08c379a00000000000000000000000000000000000000000000000000000000081526004016120bc90613e68565b60405180910390fd5b60006040518060a00160405280888152602001878152602001868152602001858152602001428152509050600b60008154809291906121039061446e565b9190505550600c8190806001815401808255809150506001900390600052602060002090600502016000909190919091506000820151816000015560208201518160010155604082015181600201556060820151816003015560808201518160040155505060006121836001600c805490506128be90919063ffffffff16565b905061218f84826128d4565b7f0b1e9a74eeaae184646d7a35062426460c8c9364005c6d441cce036dd9c655d584828a8a896040516121c6959493929190613c1c565b60405180910390a161220e6040518060400160405280601981526020017f546f6b656e204944202573206861732067656e65733a2025730000000000000081525082876128f2565b809250505095945050505050565b612227848484611e1f565b61223384848484612991565b612272576040517f08c379a000000000000000000000000000000000000000000000000000000000815260040161226990613d88565b60405180910390fd5b50505050565b606060405180602001604052806000815250905090565b606060008214156122d7576040518060400160405280600181526020017f30000000000000000000000000000000000000000000000000000000000000008152509050612437565b600082905060005b600082146123095780806122f29061446e565b915050600a8261230291906142c7565b91506122df565b60008167ffffffffffffffff81111561234b577f4e487b7100000000000000000000000000000000000000000000000000000000600052604160045260246000fd5b6040519080825280601f01601f19166020018201604052801561237d5781602001600182028036833780820191505090505b5090505b60008514612430576001826123969190614352565b9150600a856123a591906144b7565b60306123b19190614271565b60f81b8183815181106123ed577f4e487b7100000000000000000000000000000000000000000000000000000000600052603260045260246000fd5b60200101907effffffffffffffffffffffffffffffffffffffffffffffffffffffffffffff1916908160001a905350600a8561242991906142c7565b9450612381565b8093505050505b919050565b6000612446612edf565b6000612450612b28565b905060006007905061247f6040518060600160405280603481526020016146376034913987878560ff16612b3c565b6000600190505b60808111612586576000818460ff1616146124f2576064876124a891906144b7565b60ff168483600881106124e4577f4e487b7100000000000000000000000000000000000000000000000000000000600052603260045260246000fd5b602002018181525050612545565b6064866124ff91906144b7565b60ff1684836008811061253b577f4e487b7100000000000000000000000000000000000000000000000000000000600052603260045260246000fd5b6020020181815250505b60648761255291906142c7565b965060648661256191906142c7565b95506001826125709190614352565b915060028161257f91906142f8565b9050612486565b50600060c890506125cc6040518060400160405280601481526020017f70736575646f52616e646f6d4164763a2025732000000000000000000000000081525082612bde565b600a6059826125db91906144b7565b6125e59190614271565b90506126096040518060600160405280602581526020016146126025913982612bde565b8084600060088110612644577f4e487b7100000000000000000000000000000000000000000000000000000000600052603260045260246000fd5b602002018181525050600061267160405180606001604052806021815260200161468e6021913982612bde565b60005b6008811015612754578581600881106126b6577f4e487b7100000000000000000000000000000000000000000000000000000000600052603260045260246000fd5b6020020151826126c69190614271565b91506126ea60405180606001604052806023815260200161466b6023913983612bde565b60078114612741576064826126ff91906142f8565b91506127406040518060400160405280601f81526020017f6e657747656e6553657175656e636520696e6e6572206c6f6f703a202573200081525083612bde565b5b808061274c9061446e565b915050612674565b506127946040518060400160405280601b81526020017f6e657747656e6553657175656e636520617420656e643a20257320000000000081525082612bde565b809550505050505092915050565b600080600c84815481106127df577f4e487b7100000000000000000000000000000000000000000000000000000000600052603260045260246000fd5b90600052602060002090600502016002015490506000600c848154811061282f577f4e487b7100000000000000000000000000000000000000000000000000000000600052603260045260246000fd5b906000526020600020906005020160020154905060006002600a83856128559190614271565b61285f91906142f8565b61286991906142c7565b90506000600a8261287a91906144b7565b111561288f5760058161288d9190614271565b505b60006001600a836128a091906142c7565b6128aa9190614271565b90508094505050505092915050565b505050565b600081836128cc9190614352565b905092915050565b6128ee828260405180602001604052806000815250612c7a565b5050565b61298c83838360405160240161290a93929190613cfe565b6040516020818303038152906040527f969cdd03000000000000000000000000000000000000000000000000000000007bffffffffffffffffffffffffffffffffffffffffffffffffffffffff19166020820180517bffffffffffffffffffffffffffffffffffffffffffffffffffffffff8381831617835250505050612cd5565b505050565b60006129b28473ffffffffffffffffffffffffffffffffffffffff16612cfe565b15612b1b578373ffffffffffffffffffffffffffffffffffffffff1663150b7a026129db611c80565b8786866040518563ffffffff1660e01b81526004016129fd9493929190613bd0565b602060405180830381600087803b158015612a1757600080fd5b505af1925050508015612a4857506040513d601f19601f82011682018060405250810190612a4591906131a3565b60015b612acb573d8060008114612a78576040519150601f19603f3d011682016040523d82523d6000602084013e612a7d565b606091505b50600081511415612ac3576040517f08c379a0000000000000000000000000000000000000000000000000000000008152600401612aba90613d88565b60405180910390fd5b805181602001fd5b63150b7a0260e01b7bffffffffffffffffffffffffffffffffffffffffffffffffffffffff1916817bffffffffffffffffffffffffffffffffffffffffffffffffffffffff191614915050612b20565b600190505b949350505050565b600060ff42612b3791906144b7565b905090565b612bd884848484604051602401612b569493929190613d3c565b6040516020818303038152906040527f08ee5666000000000000000000000000000000000000000000000000000000007bffffffffffffffffffffffffffffffffffffffffffffffffffffffff19166020820180517bffffffffffffffffffffffffffffffffffffffffffffffffffffffff8381831617835250505050612cd5565b50505050565b612c768282604051602401612bf4929190613cce565b6040516020818303038152906040527f9710a9d0000000000000000000000000000000000000000000000000000000007bffffffffffffffffffffffffffffffffffffffffffffffffffffffff19166020820180517bffffffffffffffffffffffffffffffffffffffffffffffffffffffff8381831617835250505050612cd5565b5050565b612c848383612d11565b612c916000848484612991565b612cd0576040517f08c379a0000000000000000000000000000000000000000000000000000000008152600401612cc790613d88565b60405180910390fd5b505050565b60008151905060006a636f6e736f6c652e6c6f679050602083016000808483855afa5050505050565b600080823b905060008111915050919050565b600073ffffffffffffffffffffffffffffffffffffffff168273ffffffffffffffffffffffffffffffffffffffff161415612d81576040517f08c379a0000000000000000000000000000000000000000000000000000000008152600401612d7890613f08565b60405180910390fd5b612d8a81611c14565b15612dca576040517f08c379a0000000000000000000000000000000000000000000000000000000008152600401612dc190613de8565b60405180910390fd5b612dd6600083836128b9565b6001600360008473ffffffffffffffffffffffffffffffffffffffff1673ffffffffffffffffffffffffffffffffffffffff1681526020019081526020016000206000828254612e269190614271565b92505081905550816002600083815260200190815260200160002060006101000a81548173ffffffffffffffffffffffffffffffffffffffff021916908373ffffffffffffffffffffffffffffffffffffffff160217905550808273ffffffffffffffffffffffffffffffffffffffff16600073ffffffffffffffffffffffffffffffffffffffff167fddf252ad1be2c89b69c2b068fc378daa952ba7f163c4a11628f55a4df523b3ef60405160405180910390a45050565b604051806101000160405280600890602082028036833780820191505090505090565b6000612f15612f10846141c5565b614194565b905082815260208101848484011115612f2d57600080fd5b612f388482856143fa565b509392505050565b600081359050612f4f816145b5565b92915050565b600081359050612f64816145cc565b92915050565b600081359050612f79816145e3565b92915050565b600081519050612f8e816145e3565b92915050565b600082601f830112612fa557600080fd5b8135612fb5848260208601612f02565b91505092915050565b600081359050612fcd816145fa565b92915050565b600060208284031215612fe557600080fd5b6000612ff384828501612f40565b91505092915050565b6000806040838503121561300f57600080fd5b600061301d85828601612f40565b925050602061302e85828601612f40565b9150509250929050565b60008060006060848603121561304d57600080fd5b600061305b86828701612f40565b935050602061306c86828701612f40565b925050604061307d86828701612fbe565b9150509250925092565b6000806000806080858703121561309d57600080fd5b60006130ab87828801612f40565b94505060206130bc87828801612f40565b93505060406130cd87828801612fbe565b925050606085013567ffffffffffffffff8111156130ea57600080fd5b6130f687828801612f94565b91505092959194509250565b6000806040838503121561311557600080fd5b600061312385828601612f40565b925050602061313485828601612f55565b9150509250929050565b6000806040838503121561315157600080fd5b600061315f85828601612f40565b925050602061317085828601612fbe565b9150509250929050565b60006020828403121561318c57600080fd5b600061319a84828501612f6a565b91505092915050565b6000602082840312156131b557600080fd5b60006131c384828501612f7f565b91505092915050565b6000602082840312156131de57600080fd5b60006131ec84828501612fbe565b91505092915050565b6000806040838503121561320857600080fd5b600061321685828601612fbe565b925050602061322785828601612fbe565b9150509250929050565b600080600080600060a0868803121561324957600080fd5b600061325788828901612fbe565b955050602061326888828901612fbe565b945050604061327988828901612fbe565b935050606061328a88828901612fbe565b925050608061329b88828901612f40565b9150509295509295909350565b60006132b48383613b73565b60208301905092915050565b6132c981614386565b82525050565b60006132da82614205565b6132e48185614233565b93506132ef836141f5565b8060005b8381101561332057815161330788826132a8565b975061331283614226565b9250506001810190506132f3565b5085935050505092915050565b61333681614398565b82525050565b600061334782614210565b6133518185614244565b9350613361818560208601614409565b61336a816145a4565b840191505092915050565b60006133808261421b565b61338a8185614255565b935061339a818560208601614409565b6133a3816145a4565b840191505092915050565b60006133b98261421b565b6133c38185614266565b93506133d3818560208601614409565b80840191505092915050565b60006133ec603283614255565b91507f4552433732313a207472616e7366657220746f206e6f6e20455243373231526560008301527f63656976657220696d706c656d656e74657200000000000000000000000000006020830152604082019050919050565b6000613452602683614255565b91507f4f776e61626c653a206e6577206f776e657220697320746865207a65726f206160008301527f64647265737300000000000000000000000000000000000000000000000000006020830152604082019050919050565b60006134b8601c83614255565b91507f7472616e7366657220746f20746865207a65726f2061646472657373000000006000830152602082019050919050565b60006134f8601c83614255565b91507f4552433732313a20746f6b656e20616c7265616479206d696e746564000000006000830152602082019050919050565b6000613538602483614255565b91507f4552433732313a207472616e7366657220746f20746865207a65726f2061646460008301527f72657373000000000000000000000000000000000000000000000000000000006020830152604082019050919050565b600061359e601983614255565b91507f4552433732313a20617070726f766520746f2063616c6c6572000000000000006000830152602082019050919050565b60006135de602c83614255565b91507f4552433732313a206f70657261746f7220717565727920666f72206e6f6e657860008301527f697374656e7420746f6b656e00000000000000000000000000000000000000006020830152604082019050919050565b6000613644601083614255565b91507f5061757361626c653a20706175736564000000000000000000000000000000006000830152602082019050919050565b6000613684603883614255565b91507f4552433732313a20617070726f76652063616c6c6572206973206e6f74206f7760008301527f6e6572206e6f7220617070726f76656420666f7220616c6c00000000000000006020830152604082019050919050565b60006136ea602a83614255565b91507f4552433732313a2062616c616e636520717565727920666f7220746865207a6560008301527f726f2061646472657373000000000000000000000000000000000000000000006020830152604082019050919050565b6000613750602983614255565b91507f4552433732313a206f776e657220717565727920666f72206e6f6e657869737460008301527f656e7420746f6b656e00000000000000000000000000000000000000000000006020830152604082019050919050565b60006137b6601183614255565b91507f43616e2774207472616e7366657220746f0000000000000000000000000000006000830152602082019050919050565b60006137f6602083614255565b91507f4552433732313a206d696e7420746f20746865207a65726f20616464726573736000830152602082019050919050565b6000613836602383614255565b91507f6d757374206265206f776e6572206f6620626f746820706172656e7420746f6b60008301527f656e7300000000000000000000000000000000000000000000000000000000006020830152604082019050919050565b600061389c602c83614255565b91507f4552433732313a20617070726f76656420717565727920666f72206e6f6e657860008301527f697374656e7420746f6b656e00000000000000000000000000000000000000006020830152604082019050919050565b6000613902602083614255565b91507f4f776e61626c653a2063616c6c6572206973206e6f7420746865206f776e65726000830152602082019050919050565b6000613942602983614255565b91507f4552433732313a207472616e73666572206f6620746f6b656e2074686174206960008301527f73206e6f74206f776e00000000000000000000000000000000000000000000006020830152604082019050919050565b60006139a8602f83614255565b91507f4552433732314d657461646174613a2055524920717565727920666f72206e6f60008301527f6e6578697374656e7420746f6b656e00000000000000000000000000000000006020830152604082019050919050565b6000613a0e602183614255565b91507f4552433732313a20617070726f76616c20746f2063757272656e74206f776e6560008301527f72000000000000000000000000000000000000000000000000000000000000006020830152604082019050919050565b6000613a74603183614255565b91507f4552433732313a207472616e736665722063616c6c6572206973206e6f74206f60008301527f776e6572206e6f7220617070726f7665640000000000000000000000000000006020830152604082019050919050565b6000613ada601f83614255565b91507f5265656e7472616e637947756172643a207265656e7472616e742063616c6c006000830152602082019050919050565b6000613b1a602783614255565b91507f4d6178696d756d20616d6f756e74206f662067656e2030206d6f6e6b6579732060008301527f72656163686564000000000000000000000000000000000000000000000000006020830152604082019050919050565b613b7c816143f0565b82525050565b613b8b816143f0565b82525050565b6000613b9d82856133ae565b9150613ba982846133ae565b91508190509392505050565b6000602082019050613bca60008301846132c0565b92915050565b6000608082019050613be560008301876132c0565b613bf260208301866132c0565b613bff6040830185613b82565b8181036060830152613c11818461333c565b905095945050505050565b600060a082019050613c3160008301886132c0565b613c3e6020830187613b82565b613c4b6040830186613b82565b613c586060830185613b82565b613c656080830184613b82565b9695505050505050565b60006020820190508181036000830152613c8981846132cf565b905092915050565b6000602082019050613ca6600083018461332d565b92915050565b60006020820190508181036000830152613cc68184613375565b905092915050565b60006040820190508181036000830152613ce88185613375565b9050613cf76020830184613b82565b9392505050565b60006060820190508181036000830152613d188186613375565b9050613d276020830185613b82565b613d346040830184613b82565b949350505050565b60006080820190508181036000830152613d568187613375565b9050613d656020830186613b82565b613d726040830185613b82565b613d7f6060830184613b82565b95945050505050565b60006020820190508181036000830152613da1816133df565b9050919050565b60006020820190508181036000830152613dc181613445565b9050919050565b60006020820190508181036000830152613de1816134ab565b9050919050565b60006020820190508181036000830152613e01816134eb565b9050919050565b60006020820190508181036000830152613e218161352b565b9050919050565b60006020820190508181036000830152613e4181613591565b9050919050565b60006020820190508181036000830152613e61816135d1565b9050919050565b60006020820190508181036000830152613e8181613637565b9050919050565b60006020820190508181036000830152613ea181613677565b9050919050565b60006020820190508181036000830152613ec1816136dd565b9050919050565b60006020820190508181036000830152613ee181613743565b9050919050565b60006020820190508181036000830152613f01816137a9565b9050919050565b60006020820190508181036000830152613f21816137e9565b9050919050565b60006020820190508181036000830152613f4181613829565b9050919050565b60006020820190508181036000830152613f618161388f565b9050919050565b60006020820190508181036000830152613f81816138f5565b9050919050565b60006020820190508181036000830152613fa181613935565b9050919050565b60006020820190508181036000830152613fc18161399b565b9050919050565b60006020820190508181036000830152613fe181613a01565b9050919050565b6000602082019050818103600083015261400181613a67565b9050919050565b6000602082019050818103600083015261402181613acd565b9050919050565b6000602082019050818103600083015261404181613b0d565b9050919050565b600060208201905061405d6000830184613b82565b92915050565b600060a0820190506140786000830188613b82565b6140856020830187613b82565b6140926040830186613b82565b61409f6060830185613b82565b6140ac6080830184613b82565b9695505050505050565b600060e0820190506140cb600083018a613b82565b6140d86020830189613b82565b6140e56040830188613b82565b6140f26060830187613b82565b6140ff6080830186613b82565b61410c60a08301856132c0565b61411960c08301846132c0565b98975050505050505050565b600060e08201905061413a600083018a613b82565b6141476020830189613b82565b6141546040830188613b82565b6141616060830187613b82565b61416e6080830186613b82565b61417b60a0830185613b82565b61418860c08301846132c0565b98975050505050505050565b6000604051905081810181811067ffffffffffffffff821117156141bb576141ba614575565b5b8060405250919050565b600067ffffffffffffffff8211156141e0576141df614575565b5b601f19601f8301169050602081019050919050565b6000819050602082019050919050565b600081519050919050565b600081519050919050565b600081519050919050565b6000602082019050919050565b600082825260208201905092915050565b600082825260208201905092915050565b600082825260208201905092915050565b600081905092915050565b600061427c826143f0565b9150614287836143f0565b9250827fffffffffffffffffffffffffffffffffffffffffffffffffffffffffffffffff038211156142bc576142bb6144e8565b5b828201905092915050565b60006142d2826143f0565b91506142dd836143f0565b9250826142ed576142ec614517565b5b828204905092915050565b6000614303826143f0565b915061430e836143f0565b9250817fffffffffffffffffffffffffffffffffffffffffffffffffffffffffffffffff0483118215151615614347576143466144e8565b5b828202905092915050565b600061435d826143f0565b9150614368836143f0565b92508282101561437b5761437a6144e8565b5b828203905092915050565b6000614391826143d0565b9050919050565b60008115159050919050565b60007fffffffff0000000000000000000000000000000000000000000000000000000082169050919050565b600073ffffffffffffffffffffffffffffffffffffffff82169050919050565b6000819050919050565b82818337600083830152505050565b60005b8381101561442757808201518184015260208101905061440c565b83811115614436576000848401525b50505050565b6000600282049050600182168061445457607f821691505b6020821081141561446857614467614546565b5b50919050565b6000614479826143f0565b91507fffffffffffffffffffffffffffffffffffffffffffffffffffffffffffffffff8214156144ac576144ab6144e8565b5b600182019050919050565b60006144c2826143f0565b91506144cd836143f0565b9250826144dd576144dc614517565b5b828206905092915050565b7f4e487b7100000000000000000000000000000000000000000000000000000000600052601160045260246000fd5b7f4e487b7100000000000000000000000000000000000000000000000000000000600052601260045260246000fd5b7f4e487b7100000000000000000000000000000000000000000000000000000000600052602260045260246000fd5b7f4e487b7100000000000000000000000000000000000000000000000000000000600052604160045260246000fd5b6000601f19601f8301169050919050565b6145be81614386565b81146145c957600080fd5b50565b6145d581614398565b81146145e057600080fd5b50565b6145ec816143a4565b81146145f757600080fd5b50565b614603816143f0565b811461460e57600080fd5b5056fe70736575646f52616e646f6d4164762061667465722073686f7274656e696e673a202573205f706172656e743167656e65733a202573202c205f706172656e743267656e65733a202573202c205f72616e646f6d3a202573206e657747656e6553657175656e6365206265696e67206d6f6469666965643a202573206e657747656e6553657175656e636520617420626567696e6e696e673a20257320a26469706673582212207467448905cf9ba8528f517d686ed751682169bafa8d8a3434d702a18a78122564736f6c63430008000033",
  "linkReferences": {},
  "deployedLinkReferences": {}
}